{
  "address": "0xA3f912F08840D183886Cf6B6F646E79FA268f02a",
  "abi": [
    {
      "inputs": [],
      "stateMutability": "nonpayable",
      "type": "constructor"
    },
    {
      "anonymous": false,
      "inputs": [
        {
          "indexed": false,
          "internalType": "address",
          "name": "previousAdmin",
          "type": "address"
        },
        {
          "indexed": false,
          "internalType": "address",
          "name": "newAdmin",
          "type": "address"
        }
      ],
      "name": "AdminChanged",
      "type": "event"
    },
    {
      "anonymous": false,
      "inputs": [
        {
          "indexed": true,
          "internalType": "address",
          "name": "owner",
          "type": "address"
        },
        {
          "indexed": true,
          "internalType": "address",
          "name": "approved",
          "type": "address"
        },
        {
          "indexed": true,
          "internalType": "uint256",
          "name": "tokenId",
          "type": "uint256"
        }
      ],
      "name": "Approval",
      "type": "event"
    },
    {
      "anonymous": false,
      "inputs": [
        {
          "indexed": true,
          "internalType": "address",
          "name": "owner",
          "type": "address"
        },
        {
          "indexed": true,
          "internalType": "address",
          "name": "operator",
          "type": "address"
        },
        {
          "indexed": false,
          "internalType": "bool",
          "name": "approved",
          "type": "bool"
        }
      ],
      "name": "ApprovalForAll",
      "type": "event"
    },
    {
      "anonymous": false,
      "inputs": [
        {
          "indexed": false,
          "internalType": "string",
          "name": "baseURI",
          "type": "string"
        }
      ],
      "name": "BaseURIChanged",
      "type": "event"
    },
    {
      "anonymous": false,
      "inputs": [
        {
          "indexed": true,
          "internalType": "address",
          "name": "beacon",
          "type": "address"
        }
      ],
      "name": "BeaconUpgraded",
      "type": "event"
    },
    {
      "anonymous": false,
      "inputs": [
        {
          "indexed": false,
          "internalType": "string",
          "name": "contractURI",
          "type": "string"
        }
      ],
      "name": "ContractURIChanged",
      "type": "event"
    },
    {
      "anonymous": false,
      "inputs": [
        {
          "indexed": false,
          "internalType": "uint8",
          "name": "version",
          "type": "uint8"
        }
      ],
      "name": "Initialized",
      "type": "event"
    },
    {
      "anonymous": false,
      "inputs": [
        {
          "indexed": false,
          "internalType": "address",
          "name": "account",
          "type": "address"
        }
      ],
      "name": "Paused",
      "type": "event"
    },
    {
      "anonymous": false,
      "inputs": [
        {
          "indexed": false,
          "internalType": "contract IAddressRegistry",
          "name": "newAddress",
          "type": "address"
        }
      ],
      "name": "RegistryAddressUpdated",
      "type": "event"
    },
    {
      "anonymous": false,
      "inputs": [
        {
          "indexed": true,
          "internalType": "bytes32",
          "name": "role",
          "type": "bytes32"
        },
        {
          "indexed": true,
          "internalType": "bytes32",
          "name": "previousAdminRole",
          "type": "bytes32"
        },
        {
          "indexed": true,
          "internalType": "bytes32",
          "name": "newAdminRole",
          "type": "bytes32"
        }
      ],
      "name": "RoleAdminChanged",
      "type": "event"
    },
    {
      "anonymous": false,
      "inputs": [
        {
          "indexed": true,
          "internalType": "bytes32",
          "name": "role",
          "type": "bytes32"
        },
        {
          "indexed": true,
          "internalType": "address",
          "name": "account",
          "type": "address"
        },
        {
          "indexed": true,
          "internalType": "address",
          "name": "sender",
          "type": "address"
        }
      ],
      "name": "RoleGranted",
      "type": "event"
    },
    {
      "anonymous": false,
      "inputs": [
        {
          "indexed": true,
          "internalType": "bytes32",
          "name": "role",
          "type": "bytes32"
        },
        {
          "indexed": true,
          "internalType": "address",
          "name": "account",
          "type": "address"
        },
        {
          "indexed": true,
          "internalType": "address",
          "name": "sender",
          "type": "address"
        }
      ],
      "name": "RoleRevoked",
      "type": "event"
    },
    {
      "anonymous": false,
      "inputs": [
        {
          "indexed": true,
          "internalType": "address",
          "name": "from",
          "type": "address"
        },
        {
          "indexed": true,
          "internalType": "address",
          "name": "to",
          "type": "address"
        },
        {
          "indexed": true,
          "internalType": "uint256",
          "name": "tokenId",
          "type": "uint256"
        }
      ],
      "name": "Transfer",
      "type": "event"
    },
    {
      "anonymous": false,
      "inputs": [
        {
          "indexed": false,
          "internalType": "address",
          "name": "account",
          "type": "address"
        }
      ],
      "name": "Unpaused",
      "type": "event"
    },
    {
      "anonymous": false,
      "inputs": [
        {
          "indexed": true,
          "internalType": "address",
          "name": "implementation",
          "type": "address"
        }
      ],
      "name": "Upgraded",
      "type": "event"
    },
    {
      "inputs": [],
      "name": "DEFAULT_ADMIN_ROLE",
      "outputs": [
        {
          "internalType": "bytes32",
          "name": "",
          "type": "bytes32"
        }
      ],
      "stateMutability": "view",
      "type": "function"
    },
    {
      "inputs": [],
      "name": "MINTER_ROLE",
      "outputs": [
        {
          "internalType": "bytes32",
          "name": "",
          "type": "bytes32"
        }
      ],
      "stateMutability": "view",
      "type": "function"
    },
    {
      "inputs": [],
      "name": "PAUSER_ROLE",
      "outputs": [
        {
          "internalType": "bytes32",
          "name": "",
          "type": "bytes32"
        }
      ],
      "stateMutability": "view",
      "type": "function"
    },
    {
      "inputs": [],
      "name": "READER_ROLE",
      "outputs": [
        {
          "internalType": "bytes32",
          "name": "",
          "type": "bytes32"
        }
      ],
      "stateMutability": "view",
      "type": "function"
    },
    {
      "inputs": [],
      "name": "REGISTRY",
      "outputs": [
        {
          "internalType": "contract IAddressRegistry",
          "name": "",
          "type": "address"
        }
      ],
      "stateMutability": "view",
      "type": "function"
    },
    {
      "inputs": [
        {
          "internalType": "address",
          "name": "to",
          "type": "address"
        },
        {
          "internalType": "uint256",
          "name": "tokenId",
          "type": "uint256"
        }
      ],
      "name": "approve",
      "outputs": [],
      "stateMutability": "nonpayable",
      "type": "function"
    },
    {
      "inputs": [
        {
          "internalType": "address",
          "name": "owner",
          "type": "address"
        }
      ],
      "name": "balanceOf",
      "outputs": [
        {
          "internalType": "uint256",
          "name": "",
          "type": "uint256"
        }
      ],
      "stateMutability": "view",
      "type": "function"
    },
    {
      "inputs": [],
      "name": "baseURI",
      "outputs": [
        {
          "internalType": "string",
          "name": "",
          "type": "string"
        }
      ],
      "stateMutability": "view",
      "type": "function"
    },
    {
      "inputs": [
        {
          "internalType": "uint256",
          "name": "tokenId",
          "type": "uint256"
        }
      ],
      "name": "burn",
      "outputs": [],
      "stateMutability": "nonpayable",
      "type": "function"
    },
    {
      "inputs": [],
      "name": "contractURI",
      "outputs": [
        {
          "internalType": "string",
          "name": "",
          "type": "string"
        }
      ],
      "stateMutability": "view",
      "type": "function"
    },
    {
      "inputs": [
        {
          "internalType": "uint256",
          "name": "tokenId",
          "type": "uint256"
        }
      ],
      "name": "getApproved",
      "outputs": [
        {
          "internalType": "address",
          "name": "",
          "type": "address"
        }
      ],
      "stateMutability": "view",
      "type": "function"
    },
    {
      "inputs": [
        {
          "internalType": "bytes32",
          "name": "role",
          "type": "bytes32"
        }
      ],
      "name": "getRoleAdmin",
      "outputs": [
        {
          "internalType": "bytes32",
          "name": "",
          "type": "bytes32"
        }
      ],
      "stateMutability": "view",
      "type": "function"
    },
    {
      "inputs": [
        {
          "internalType": "bytes32",
          "name": "role",
          "type": "bytes32"
        },
        {
          "internalType": "address",
          "name": "account",
          "type": "address"
        }
      ],
      "name": "grantRole",
      "outputs": [],
      "stateMutability": "nonpayable",
      "type": "function"
    },
    {
      "inputs": [
        {
          "internalType": "bytes32",
          "name": "role",
          "type": "bytes32"
        },
        {
          "internalType": "address",
          "name": "account",
          "type": "address"
        }
      ],
      "name": "hasRole",
      "outputs": [
        {
          "internalType": "bool",
          "name": "",
          "type": "bool"
        }
      ],
      "stateMutability": "view",
      "type": "function"
    },
    {
      "inputs": [
        {
          "internalType": "string",
          "name": "_erc721_name",
          "type": "string"
        },
        {
          "internalType": "string",
          "name": "_erc721_symbol",
          "type": "string"
        },
        {
          "internalType": "contract IAddressRegistry",
          "name": "_registry",
          "type": "address"
        }
      ],
      "name": "initialize",
      "outputs": [],
      "stateMutability": "nonpayable",
      "type": "function"
    },
    {
      "inputs": [
        {
          "internalType": "address",
          "name": "owner",
          "type": "address"
        },
        {
          "internalType": "address",
          "name": "operator",
          "type": "address"
        }
      ],
      "name": "isApprovedForAll",
      "outputs": [
        {
          "internalType": "bool",
          "name": "",
          "type": "bool"
        }
      ],
      "stateMutability": "view",
      "type": "function"
    },
    {
      "inputs": [
        {
          "internalType": "address",
          "name": "to",
          "type": "address"
        },
        {
          "internalType": "enum InvestorsNFT.TokenLevel",
          "name": "tokenLevel",
          "type": "uint8"
        }
      ],
      "name": "mintInvestmentNFT",
      "outputs": [
        {
          "internalType": "uint256",
          "name": "tokenId",
          "type": "uint256"
        }
      ],
      "stateMutability": "nonpayable",
      "type": "function"
    },
    {
      "inputs": [],
      "name": "name",
      "outputs": [
        {
          "internalType": "string",
          "name": "",
          "type": "string"
        }
      ],
      "stateMutability": "view",
      "type": "function"
    },
    {
      "inputs": [
        {
          "internalType": "uint256",
          "name": "tokenId",
          "type": "uint256"
        }
      ],
      "name": "ownerOf",
      "outputs": [
        {
          "internalType": "address",
          "name": "",
          "type": "address"
        }
      ],
      "stateMutability": "view",
      "type": "function"
    },
    {
      "inputs": [],
      "name": "pause",
      "outputs": [],
      "stateMutability": "nonpayable",
      "type": "function"
    },
    {
      "inputs": [],
      "name": "paused",
      "outputs": [
        {
          "internalType": "bool",
          "name": "",
          "type": "bool"
        }
      ],
      "stateMutability": "view",
      "type": "function"
    },
    {
      "inputs": [],
      "name": "proxiableUUID",
      "outputs": [
        {
          "internalType": "bytes32",
          "name": "",
          "type": "bytes32"
        }
      ],
      "stateMutability": "view",
      "type": "function"
    },
    {
      "inputs": [
        {
          "internalType": "bytes32",
          "name": "role",
          "type": "bytes32"
        },
        {
          "internalType": "address",
          "name": "account",
          "type": "address"
        }
      ],
      "name": "renounceRole",
      "outputs": [],
      "stateMutability": "nonpayable",
      "type": "function"
    },
    {
      "inputs": [
        {
          "internalType": "bytes32",
          "name": "role",
          "type": "bytes32"
        },
        {
          "internalType": "address",
          "name": "account",
          "type": "address"
        }
      ],
      "name": "revokeRole",
      "outputs": [],
      "stateMutability": "nonpayable",
      "type": "function"
    },
    {
      "inputs": [
        {
          "internalType": "address",
          "name": "from",
          "type": "address"
        },
        {
          "internalType": "address",
          "name": "to",
          "type": "address"
        },
        {
          "internalType": "uint256",
          "name": "tokenId",
          "type": "uint256"
        }
      ],
      "name": "safeTransferFrom",
      "outputs": [],
      "stateMutability": "nonpayable",
      "type": "function"
    },
    {
      "inputs": [
        {
          "internalType": "address",
          "name": "from",
          "type": "address"
        },
        {
          "internalType": "address",
          "name": "to",
          "type": "address"
        },
        {
          "internalType": "uint256",
          "name": "tokenId",
          "type": "uint256"
        },
        {
          "internalType": "bytes",
          "name": "data",
          "type": "bytes"
        }
      ],
      "name": "safeTransferFrom",
      "outputs": [],
      "stateMutability": "nonpayable",
      "type": "function"
    },
    {
      "inputs": [
        {
          "internalType": "address",
          "name": "operator",
          "type": "address"
        },
        {
          "internalType": "bool",
          "name": "approved",
          "type": "bool"
        }
      ],
      "name": "setApprovalForAll",
      "outputs": [],
      "stateMutability": "nonpayable",
      "type": "function"
    },
    {
      "inputs": [
        {
          "internalType": "string",
          "name": "newURI",
          "type": "string"
        }
      ],
      "name": "setBaseURI",
      "outputs": [],
      "stateMutability": "nonpayable",
      "type": "function"
    },
    {
      "inputs": [
        {
          "internalType": "bytes4",
          "name": "interfaceId",
          "type": "bytes4"
        }
      ],
      "name": "supportsInterface",
      "outputs": [
        {
          "internalType": "bool",
          "name": "",
          "type": "bool"
        }
      ],
      "stateMutability": "view",
      "type": "function"
    },
    {
      "inputs": [],
      "name": "symbol",
      "outputs": [
        {
          "internalType": "string",
          "name": "",
          "type": "string"
        }
      ],
      "stateMutability": "view",
      "type": "function"
    },
    {
      "inputs": [
        {
          "internalType": "uint256",
          "name": "index",
          "type": "uint256"
        }
      ],
      "name": "tokenByIndex",
      "outputs": [
        {
          "internalType": "uint256",
          "name": "",
          "type": "uint256"
        }
      ],
      "stateMutability": "view",
      "type": "function"
    },
    {
      "inputs": [
        {
          "internalType": "address",
          "name": "owner",
          "type": "address"
        },
        {
          "internalType": "uint256",
          "name": "index",
          "type": "uint256"
        }
      ],
      "name": "tokenOfOwnerByIndex",
      "outputs": [
        {
          "internalType": "uint256",
          "name": "",
          "type": "uint256"
        }
      ],
      "stateMutability": "view",
      "type": "function"
    },
    {
      "inputs": [
        {
          "internalType": "uint256",
          "name": "tokenId",
          "type": "uint256"
        }
      ],
      "name": "tokenURI",
      "outputs": [
        {
          "internalType": "string",
          "name": "",
          "type": "string"
        }
      ],
      "stateMutability": "view",
      "type": "function"
    },
    {
      "inputs": [],
      "name": "totalSupply",
      "outputs": [
        {
          "internalType": "uint256",
          "name": "",
          "type": "uint256"
        }
      ],
      "stateMutability": "view",
      "type": "function"
    },
    {
      "inputs": [
        {
          "internalType": "address",
          "name": "from",
          "type": "address"
        },
        {
          "internalType": "address",
          "name": "to",
          "type": "address"
        },
        {
          "internalType": "uint256",
          "name": "tokenId",
          "type": "uint256"
        }
      ],
      "name": "transferFrom",
      "outputs": [],
      "stateMutability": "nonpayable",
      "type": "function"
    },
    {
      "inputs": [],
      "name": "unpause",
      "outputs": [],
      "stateMutability": "nonpayable",
      "type": "function"
    },
    {
      "inputs": [
        {
          "internalType": "contract IAddressRegistry",
          "name": "newAddress",
          "type": "address"
        }
      ],
      "name": "updateRegistryAddress",
      "outputs": [],
      "stateMutability": "nonpayable",
      "type": "function"
    },
    {
      "inputs": [
        {
          "internalType": "address",
          "name": "newImplementation",
          "type": "address"
        }
      ],
      "name": "upgradeTo",
      "outputs": [],
      "stateMutability": "nonpayable",
      "type": "function"
    },
    {
      "inputs": [
        {
          "internalType": "address",
          "name": "newImplementation",
          "type": "address"
        },
        {
          "internalType": "bytes",
          "name": "data",
          "type": "bytes"
        }
      ],
      "name": "upgradeToAndCall",
      "outputs": [],
      "stateMutability": "payable",
      "type": "function"
    }
  ],
  "transactionHash": "0xca29d9cdcc0ba09c3ca9446f1cfb38013c56ec9692545f2a8eb0015292e26c7e",
  "args": [],
  "numDeployments": 1,
  "solcInputHash": "89285ce2c1829f2c81ba1b0d7ddcd3bf",
  "bytecode": "0x60a06040523060601b6080523480156200001857600080fd5b50600054610100900460ff16158080156200003a5750600054600160ff909116105b806200006a575062000057306200014460201b620018981760201c565b1580156200006a575060005460ff166001145b620000d25760405162461bcd60e51b815260206004820152602e60248201527f496e697469616c697a61626c653a20636f6e747261637420697320616c72656160448201526d191e481a5b9a5d1a585b1a5e995960921b606482015260840160405180910390fd5b6000805460ff191660011790558015620000f6576000805461ff0019166101001790555b80156200013d576000805461ff0019169055604051600181527f7f26b83ff96e1f2b6a682f133852f6798a09c465da95921460cefb38474024989060200160405180910390a15b5062000153565b6001600160a01b03163b151590565b60805160601c613c406200018e60003960008181610e8301528181610ec30152818161101d0152818161105d015261118d0152613c406000f3fe6080604052600436106102305760003560e01c806352d1902d1161012e578063a217fddf116100ab578063d53913931161006f578063d539139314610674578063d547741f14610696578063e63ab1e9146106b6578063e8a3d485146106d8578063e985e9c5146106ed57600080fd5b8063a217fddf146105df578063a22cb465146105f4578063b88d4fde14610614578063c57a882514610634578063c87b56dd1461065457600080fd5b80636c0360eb116100f25780636c0360eb1461056057806370a08231146105755780638456cb591461059557806391d14854146105aa57806395d89b41146105ca57600080fd5b806352d1902d146104d257806355f804b3146104e75780635c839098146105075780635c975abb146105275780636352211e1461054057600080fd5b80632f2ff15d116101bc57806342842e0e1161018057806342842e0e1461042b57806342966c681461044b578063458c44581461046b5780634f1ef2861461049f5780634f6ccce7146104b257600080fd5b80632f2ff15d146103965780632f745c59146103b657806336568abe146103d65780633659cfe6146103f65780633f4ba83a1461041657600080fd5b8063081812fc11610203578063081812fc146102e7578063095ea7b31461030757806318160ddd1461032757806323b872dd14610346578063248a9ca31461036657600080fd5b806301ffc9a71461023557806306433b1b1461026a57806306fdde03146102a3578063077f224a146102c5575b600080fd5b34801561024157600080fd5b50610255610250366004613440565b610736565b60405190151581526020015b60405180910390f35b34801561027657600080fd5b506101f55461028b906001600160a01b031681565b6040516001600160a01b039091168152602001610261565b3480156102af57600080fd5b506102b8610747565b60405161026191906137ac565b3480156102d157600080fd5b506102e56102e0366004613478565b6107d9565b005b3480156102f357600080fd5b5061028b6103023660046133ec565b610bd0565b34801561031357600080fd5b506102e56103223660046133c1565b610bf7565b34801561033357600080fd5b506099545b604051908152602001610261565b34801561035257600080fd5b506102e5610361366004613268565b610d0d565b34801561037257600080fd5b506103386103813660046133ec565b600090815260fb602052604090206001015490565b3480156103a257600080fd5b506102e56103b136600461341c565b610d3f565b3480156103c257600080fd5b506103386103d13660046133c1565b610d64565b3480156103e257600080fd5b506102e56103f136600461341c565b610dfa565b34801561040257600080fd5b506102e56104113660046131f8565b610e78565b34801561042257600080fd5b506102e5610f58565b34801561043757600080fd5b506102e5610446366004613268565b610f78565b34801561045757600080fd5b506102e56104663660046133ec565b610f93565b34801561047757600080fd5b506103387fc757f485a2bb9eadbad5c86f7618c2a7a2ecb41b29f8610fb0e8bea3ed5ab6cf81565b6102e56104ad366004613343565b611012565b3480156104be57600080fd5b506103386104cd3660046133ec565b6110df565b3480156104de57600080fd5b50610338611180565b3480156104f357600080fd5b506102e56105023660046134f9565b611233565b34801561051357600080fd5b50610338610522366004613391565b611298565b34801561053357600080fd5b5061012d5460ff16610255565b34801561054c57600080fd5b5061028b61055b3660046133ec565b61130b565b34801561056c57600080fd5b506102b861136b565b34801561058157600080fd5b506103386105903660046131f8565b6113fa565b3480156105a157600080fd5b506102e5611480565b3480156105b657600080fd5b506102556105c536600461341c565b6114a0565b3480156105d657600080fd5b506102b86114cb565b3480156105eb57600080fd5b50610338600081565b34801561060057600080fd5b506102e561060f366004613312565b6114da565b34801561062057600080fd5b506102e561062f3660046132a8565b6114e5565b34801561064057600080fd5b506102e561064f3660046131f8565b61151d565b34801561066057600080fd5b506102b861066f3660046133ec565b61157f565b34801561068057600080fd5b50610338600080516020613beb83398151915281565b3480156106a257600080fd5b506102e56106b136600461341c565b61181b565b3480156106c257600080fd5b50610338600080516020613ba483398151915281565b3480156106e457600080fd5b506102b8611840565b3480156106f957600080fd5b50610255610708366004613230565b6001600160a01b039182166000908152606a6020908152604080832093909416825291909152205460ff1690565b6000610741826118a7565b92915050565b60606065805461075690613af1565b80601f016020809104026020016040519081016040528092919081815260200182805461078290613af1565b80156107cf5780601f106107a4576101008083540402835291602001916107cf565b820191906000526020600020905b8154815290600101906020018083116107b257829003601f168201915b5050505050905090565b600054610100900460ff16158080156107f95750600054600160ff909116105b806108135750303b158015610813575060005460ff166001145b61087b5760405162461bcd60e51b815260206004820152602e60248201527f496e697469616c697a61626c653a20636f6e747261637420697320616c72656160448201526d191e481a5b9a5d1a585b1a5e995960921b60648201526084015b60405180910390fd5b6000805460ff19166001179055801561089e576000805461ff0019166101001790555b61091186868080601f01602080910402602001604051908101604052809392919081815260200183838082843760009201919091525050604080516020601f8a0181900481028201810190925288815292508891508790819084018382808284376000920191909152506118cc92505050565b6109196118fd565b6109216118fd565b610929611926565b6101f580546001600160a01b0319166001600160a01b03841690811790915560408051632530b14560e01b815290516000929163e09c0c47918391632530b1459160048083019288929190829003018186803b15801561098857600080fd5b505afa15801561099c573d6000803e3d6000fd5b505050506040513d6000823e601f3d908101601f191682016040526109c4919081019061353f565b6040518263ffffffff1660e01b81526004016109e091906137ac565b60206040518083038186803b1580156109f857600080fd5b505afa158015610a0c573d6000803e3d6000fd5b505050506040513d601f19601f82011682018060405250810190610a309190613214565b6101f5546040805163a643764960e01b815290519293506000926001600160a01b039092169163e09c0c4791839163a6437649916004808201928892909190829003018186803b158015610a8357600080fd5b505afa158015610a97573d6000803e3d6000fd5b505050506040513d6000823e601f3d908101601f19168201604052610abf919081019061353f565b6040518263ffffffff1660e01b8152600401610adb91906137ac565b60206040518083038186803b158015610af357600080fd5b505afa158015610b07573d6000803e3d6000fd5b505050506040513d601f19601f82011682018060405250810190610b2b9190613214565b9050610b38600083611965565b610b50600080516020613ba483398151915283611965565b610b68600080516020613beb83398151915283611965565b610b80600080516020613beb83398151915282611965565b50508015610bc8576000805461ff0019169055604051600181527f7f26b83ff96e1f2b6a682f133852f6798a09c465da95921460cefb38474024989060200160405180910390a15b505050505050565b6000610bdb826119eb565b506000908152606960205260409020546001600160a01b031690565b6000610c028261130b565b9050806001600160a01b0316836001600160a01b03161415610c705760405162461bcd60e51b815260206004820152602160248201527f4552433732313a20617070726f76616c20746f2063757272656e74206f776e656044820152603960f91b6064820152608401610872565b336001600160a01b0382161480610c8c5750610c8c8133610708565b610cfe5760405162461bcd60e51b815260206004820152603d60248201527f4552433732313a20617070726f76652063616c6c6572206973206e6f7420746f60448201527f6b656e206f776e6572206f7220617070726f76656420666f7220616c6c0000006064820152608401610872565b610d088383611a4a565b505050565b610d18335b82611ab8565b610d345760405162461bcd60e51b815260040161087290613840565b610d08838383611b37565b600082815260fb6020526040902060010154610d5a81611d44565b610d088383611965565b6000610d6f836113fa565b8210610dd15760405162461bcd60e51b815260206004820152602b60248201527f455243373231456e756d657261626c653a206f776e657220696e646578206f7560448201526a74206f6620626f756e647360a81b6064820152608401610872565b506001600160a01b03919091166000908152609760209081526040808320938352929052205490565b6001600160a01b0381163314610e6a5760405162461bcd60e51b815260206004820152602f60248201527f416363657373436f6e74726f6c3a2063616e206f6e6c792072656e6f756e636560448201526e103937b632b9903337b91039b2b63360891b6064820152608401610872565b610e748282611d4e565b5050565b306001600160a01b037f0000000000000000000000000000000000000000000000000000000000000000161415610ec15760405162461bcd60e51b815260040161087290613924565b7f00000000000000000000000000000000000000000000000000000000000000006001600160a01b0316610f0a600080516020613b84833981519152546001600160a01b031690565b6001600160a01b031614610f305760405162461bcd60e51b815260040161087290613970565b610f3981611db5565b60408051600080825260208201909252610f5591839190611dc0565b50565b600080516020613ba4833981519152610f7081611d44565b610f55611f3a565b610d08838383604051806020016040528060008152506114e5565b610f9b611f8d565b610fa433610d12565b6110095760405162461bcd60e51b815260206004820152603060248201527f4552433732314275726e61626c653a2063616c6c6572206973206e6f74206f7760448201526f1b995c881b9bdc88185c1c1c9bdd995960821b6064820152608401610872565b610f5581611fd4565b306001600160a01b037f000000000000000000000000000000000000000000000000000000000000000016141561105b5760405162461bcd60e51b815260040161087290613924565b7f00000000000000000000000000000000000000000000000000000000000000006001600160a01b03166110a4600080516020613b84833981519152546001600160a01b031690565b6001600160a01b0316146110ca5760405162461bcd60e51b815260040161087290613970565b6110d382611db5565b610e7482826001611dc0565b60006110ea60995490565b821061114d5760405162461bcd60e51b815260206004820152602c60248201527f455243373231456e756d657261626c653a20676c6f62616c20696e646578206f60448201526b7574206f6620626f756e647360a01b6064820152608401610872565b6099828154811061116e57634e487b7160e01b600052603260045260246000fd5b90600052602060002001549050919050565b6000306001600160a01b037f000000000000000000000000000000000000000000000000000000000000000016146112205760405162461bcd60e51b815260206004820152603860248201527f555550535570677261646561626c653a206d757374206e6f742062652063616c60448201527f6c6564207468726f7567682064656c656761746563616c6c00000000000000006064820152608401610872565b50600080516020613b8483398151915290565b61123b611f8d565b600061124681611d44565b815161125a906101f69060208501906130bb565b507f5411e8ebf1636d9e83d5fc4900bf80cbac82e8790da2a4c94db4895e889eedf66101f660405161128c91906137bf565b60405180910390a15050565b60006112a2611f8d565b600080516020613beb8339815191526112ba81611d44565b6112c384611fdd565b60008181526101f8602052604090208054919350849160ff191660018360038111156112ff57634e487b7160e01b600052602160045260246000fd5b02179055505092915050565b6000818152606760205260408120546001600160a01b0316806107415760405162461bcd60e51b8152602060048201526018602482015277115490cdcc8c4e881a5b9d985b1a59081d1bdad95b88125160421b6044820152606401610872565b6101f6805461137990613af1565b80601f01602080910402602001604051908101604052809291908181526020018280546113a590613af1565b80156113f25780601f106113c7576101008083540402835291602001916113f2565b820191906000526020600020905b8154815290600101906020018083116113d557829003601f168201915b505050505081565b60006001600160a01b0382166114645760405162461bcd60e51b815260206004820152602960248201527f4552433732313a2061646472657373207a65726f206973206e6f7420612076616044820152683634b21037bbb732b960b91b6064820152608401610872565b506001600160a01b031660009081526068602052604090205490565b600080516020613ba483398151915261149881611d44565b610f55612005565b600091825260fb602090815260408084206001600160a01b0393909316845291905290205460ff1690565b60606066805461075690613af1565b610e74338383612043565b6114ef3383611ab8565b61150b5760405162461bcd60e51b815260040161087290613840565b61151784848484612112565b50505050565b611525612145565b600061153081611d44565b6101f580546001600160a01b0319166001600160a01b0384169081179091556040519081527fc533a624c353ec88e315b162298e52e2b02aa03d5fb5afdbf13445a26f1d10c79060200161128c565b6000818152606760205260409020546060906001600160a01b03166115fe5760405162461bcd60e51b815260206004820152602f60248201527f4552433732314d657461646174613a2055524920717565727920666f72206e6f60448201526e3732bc34b9ba32b73a103a37b5b2b760891b6064820152608401610872565b600061160861218f565b6101f5546040805163a643764960e01b8152905192935060009283926001600160a01b03169163e09c0c4791839163a64376499160048083019288929190829003018186803b15801561165a57600080fd5b505afa15801561166e573d6000803e3d6000fd5b505050506040513d6000823e601f3d908101601f19168201604052611696919081019061353f565b6040518263ffffffff1660e01b81526004016116b291906137ac565b60206040518083038186803b1580156116ca57600080fd5b505afa1580156116de573d6000803e3d6000fd5b505050506040513d601f19601f820116820180604052508101906117029190613214565b6001600160a01b03166396f6b210866040518263ffffffff1660e01b815260040161172f91815260200190565b604080518083038186803b15801561174657600080fd5b505afa15801561175a573d6000803e3d6000fd5b505050506040513d601f19601f8201168201806040525081019061177e91906135b2565b60008781526101f86020526040902054855192945090925060ff1690838314906117b75760405180602001604052806000815250611810565b806117ed576101f66117c88361219f565b6040516020016117d99291906136bc565b604051602081830303815290604052611810565b6101f660405160200161180091906136e1565b6040516020818303038152906040525b979650505050505050565b600082815260fb602052604090206001015461183681611d44565b610d088383611d4e565b606060006101f6805461185290613af1565b90501161186c575060408051602081019091526000815290565b61187461218f565b604051602001611884919061368c565b604051602081830303815290604052905090565b6001600160a01b03163b151590565b60006001600160e01b03198216637965db0b60e01b14806107415750610741826122ff565b600054610100900460ff166118f35760405162461bcd60e51b8152600401610872906139bc565b610e748282612324565b600054610100900460ff166119245760405162461bcd60e51b8152600401610872906139bc565b565b600054610100900460ff1661194d5760405162461bcd60e51b8152600401610872906139bc565b611955612372565b61195d6118fd565b6119246118fd565b61196f82826114a0565b610e7457600082815260fb602090815260408083206001600160a01b03851684529091529020805460ff191660011790556119a73390565b6001600160a01b0316816001600160a01b0316837f2f8788117e7eff1d82e926ec794901d17c78024a50270940304540a733656f0d60405160405180910390a45050565b6000818152606760205260409020546001600160a01b0316610f555760405162461bcd60e51b8152602060048201526018602482015277115490cdcc8c4e881a5b9d985b1a59081d1bdad95b88125160421b6044820152606401610872565b600081815260696020526040902080546001600160a01b0319166001600160a01b0384169081179091558190611a7f8261130b565b6001600160a01b03167f8c5be1e5ebec7d5bd14f71427d1e84f3dd0314c0f7b2291e5b200ac8c7c3b92560405160405180910390a45050565b600080611ac48361130b565b9050806001600160a01b0316846001600160a01b03161480611b0b57506001600160a01b038082166000908152606a602090815260408083209388168352929052205460ff165b80611b2f5750836001600160a01b0316611b2484610bd0565b6001600160a01b0316145b949350505050565b6101f5546040805163a643764960e01b8152905160009283926001600160a01b039091169163e09c0c4791839163a6437649916004808201928892909190829003018186803b158015611b8957600080fd5b505afa158015611b9d573d6000803e3d6000fd5b505050506040513d6000823e601f3d908101601f19168201604052611bc5919081019061353f565b6040518263ffffffff1660e01b8152600401611be191906137ac565b60206040518083038186803b158015611bf957600080fd5b505afa158015611c0d573d6000803e3d6000fd5b505050506040513d601f19601f82011682018060405250810190611c319190613214565b6001600160a01b03166396f6b210846040518263ffffffff1660e01b8152600401611c5e91815260200190565b604080518083038186803b158015611c7557600080fd5b505afa158015611c89573d6000803e3d6000fd5b505050506040513d601f19601f82011682018060405250810190611cad91906135b2565b909250905081811480611d395760405162461bcd60e51b815260206004820152604860248201527f4e46543a205472616e73666572206f6620746f6b656e2069732070726f68696260448201527f6974656420756e74696c20696e766573746d656e7420697320746f74616c6c796064820152670818db185a5b595960c21b608482015260a401610872565b610bc88686866123a1565b610f558133612512565b611d5882826114a0565b15610e7457600082815260fb602090815260408083206001600160a01b0385168085529252808320805460ff1916905551339285917ff6391f5c32d9c69d2a47ea670b442974b53935d1edc7fd64eb21e047a839171b9190a45050565b6000610e7481611d44565b7f4910fdfa16fed3260ed0e7147f7cc6da11a60208b5b9406d12a635614ffd91435460ff1615611df357610d088361256b565b826001600160a01b03166352d1902d6040518163ffffffff1660e01b815260040160206040518083038186803b158015611e2c57600080fd5b505afa925050508015611e5c575060408051601f3d908101601f19168201909252611e5991810190613404565b60015b611ebf5760405162461bcd60e51b815260206004820152602e60248201527f45524331393637557067726164653a206e657720696d706c656d656e7461746960448201526d6f6e206973206e6f74205555505360901b6064820152608401610872565b600080516020613b848339815191528114611f2e5760405162461bcd60e51b815260206004820152602960248201527f45524331393637557067726164653a20756e737570706f727465642070726f786044820152681a58589b195555525160ba1b6064820152608401610872565b50610d08838383612607565b611f42612145565b61012d805460ff191690557f5db9ee0a495bf2e6ff9c91a7834c1ba4fdd244a5e8aa4e537bd38aeae4b073aa335b6040516001600160a01b03909116815260200160405180910390a1565b61012d5460ff16156119245760405162461bcd60e51b815260206004820152601060248201526f14185d5cd8589b194e881c185d5cd95960821b6044820152606401610872565b610f558161262c565b600080611fea6101f75490565b9050611ffb6101f780546001019055565b61074183826126cf565b61200d611f8d565b61012d805460ff191660011790557f62e78cea01bee320cd4e420270b5ea74000d11b0c9f74754ebdbfc544b05a258611f703390565b816001600160a01b0316836001600160a01b031614156120a55760405162461bcd60e51b815260206004820152601960248201527f4552433732313a20617070726f766520746f2063616c6c6572000000000000006044820152606401610872565b6001600160a01b038381166000818152606a6020908152604080832094871680845294825291829020805460ff191686151590811790915591519182527f17307eab39ab6107e8899845ad3d59bd9653f200f220920489ca2b5937696c31910160405180910390a3505050565b61211d848484611b37565b612129848484846126e9565b6115175760405162461bcd60e51b81526004016108729061388d565b61012d5460ff166119245760405162461bcd60e51b815260206004820152601460248201527314185d5cd8589b194e881b9bdd081c185d5cd95960621b6044820152606401610872565b60606101f6805461075690613af1565b606060008260038111156121c357634e487b7160e01b600052602160045260246000fd5b14156121ea575050604080518082019091526005815264424c41434b60d81b602082015290565b600182600381111561220c57634e487b7160e01b600052602160045260246000fd5b141561223257505060408051808201909152600481526311d3d31160e21b602082015290565b600282600381111561225457634e487b7160e01b600052602160045260246000fd5b141561227957505060408051808201909152600381526214915160ea1b602082015290565b600382600381111561229b57634e487b7160e01b600052602160045260246000fd5b14156122c1575050604080518082019091526004815263424c554560e01b602082015290565b60405162461bcd60e51b8152602060048201526013602482015272155b9adb9bdddb881d1bdad95b881b195d995b606a1b6044820152606401610872565b60006001600160e01b0319821663780e9d6360e01b14806107415750610741826127f6565b600054610100900460ff1661234b5760405162461bcd60e51b8152600401610872906139bc565b815161235e9060659060208501906130bb565b508051610d089060669060208401906130bb565b600054610100900460ff166123995760405162461bcd60e51b8152600401610872906139bc565b611924612846565b826001600160a01b03166123b48261130b565b6001600160a01b0316146123da5760405162461bcd60e51b8152600401610872906138df565b6001600160a01b03821661243c5760405162461bcd60e51b8152602060048201526024808201527f4552433732313a207472616e7366657220746f20746865207a65726f206164646044820152637265737360e01b6064820152608401610872565b612449838383600161287a565b826001600160a01b031661245c8261130b565b6001600160a01b0316146124825760405162461bcd60e51b8152600401610872906138df565b600081815260696020908152604080832080546001600160a01b03199081169091556001600160a01b0387811680865260688552838620805460001901905590871680865283862080546001019055868652606790945282852080549092168417909155905184937fddf252ad1be2c89b69c2b068fc378daa952ba7f163c4a11628f55a4df523b3ef91a4505050565b61251c82826114a0565b610e74576125298161288e565b6125348360206128a0565b604051602001612545929190613704565b60408051601f198184030181529082905262461bcd60e51b8252610872916004016137ac565b6001600160a01b0381163b6125d85760405162461bcd60e51b815260206004820152602d60248201527f455243313936373a206e657720696d706c656d656e746174696f6e206973206e60448201526c1bdd08184818dbdb9d1c9858dd609a1b6064820152608401610872565b600080516020613b8483398151915280546001600160a01b0319166001600160a01b0392909216919091179055565b61261083612a89565b60008251118061261d5750805b15610d08576115178383612ac9565b60006126378261130b565b905061264781600084600161287a565b6126508261130b565b600083815260696020908152604080832080546001600160a01b03199081169091556001600160a01b0385168085526068845282852080546000190190558785526067909352818420805490911690555192935084927fddf252ad1be2c89b69c2b068fc378daa952ba7f163c4a11628f55a4df523b3ef908390a45050565b610e74828260405180602001604052806000815250612aee565b60006001600160a01b0384163b156127eb57604051630a85bd0160e11b81526001600160a01b0385169063150b7a029061272d903390899088908890600401613779565b602060405180830381600087803b15801561274757600080fd5b505af1925050508015612777575060408051601f3d908101601f191682019092526127749181019061345c565b60015b6127d1573d8080156127a5576040519150601f19603f3d011682016040523d82523d6000602084013e6127aa565b606091505b5080516127c95760405162461bcd60e51b81526004016108729061388d565b805181602001fd5b6001600160e01b031916630a85bd0160e11b149050611b2f565b506001949350505050565b60006001600160e01b031982166380ac58cd60e01b148061282757506001600160e01b03198216635b5e139f60e01b145b8061074157506301ffc9a760e01b6001600160e01b0319831614610741565b600054610100900460ff1661286d5760405162461bcd60e51b8152600401610872906139bc565b61012d805460ff19169055565b612882611f8d565b61151784848484612b21565b60606107416001600160a01b03831660145b606060006128af836002613a78565b6128ba906002613a60565b67ffffffffffffffff8111156128e057634e487b7160e01b600052604160045260246000fd5b6040519080825280601f01601f19166020018201604052801561290a576020820181803683370190505b509050600360fc1b8160008151811061293357634e487b7160e01b600052603260045260246000fd5b60200101906001600160f81b031916908160001a905350600f60fb1b8160018151811061297057634e487b7160e01b600052603260045260246000fd5b60200101906001600160f81b031916908160001a9053506000612994846002613a78565b61299f906001613a60565b90505b6001811115612a33576f181899199a1a9b1b9c1cb0b131b232b360811b85600f16601081106129e157634e487b7160e01b600052603260045260246000fd5b1a60f81b828281518110612a0557634e487b7160e01b600052603260045260246000fd5b60200101906001600160f81b031916908160001a90535060049490941c93612a2c81613ada565b90506129a2565b508315612a825760405162461bcd60e51b815260206004820181905260248201527f537472696e67733a20686578206c656e67746820696e73756666696369656e746044820152606401610872565b9392505050565b612a928161256b565b6040516001600160a01b038216907fbc7cd75a20ee27fd9adebab32041f755214dbc6bffa90cc0225b39da2e5c2d3b90600090a250565b6060612a828383604051806060016040528060278152602001613bc460279139612c55565b612af88383612ccd565b612b0560008484846126e9565b610d085760405162461bcd60e51b81526004016108729061388d565b6001811115612b905760405162461bcd60e51b815260206004820152603560248201527f455243373231456e756d657261626c653a20636f6e7365637574697665207472604482015274185b9cd9995c9cc81b9bdd081cdd5c1c1bdc9d1959605a1b6064820152608401610872565b816001600160a01b038516612bec57612be781609980546000838152609a60205260408120829055600182018355919091527f72a152ddfb8e864297c917af52ea6c1c68aead0fee1a62673fcc7e0c94979d000155565b612c0f565b836001600160a01b0316856001600160a01b031614612c0f57612c0f8582612e66565b6001600160a01b038416612c2b57612c2681612f03565b612c4e565b846001600160a01b0316846001600160a01b031614612c4e57612c4e8482612fdc565b5050505050565b6060600080856001600160a01b031685604051612c729190613670565b600060405180830381855af49150503d8060008114612cad576040519150601f19603f3d011682016040523d82523d6000602084013e612cb2565b606091505b5091509150612cc386838387613020565b9695505050505050565b6001600160a01b038216612d235760405162461bcd60e51b815260206004820181905260248201527f4552433732313a206d696e7420746f20746865207a65726f20616464726573736044820152606401610872565b6000818152606760205260409020546001600160a01b031615612d885760405162461bcd60e51b815260206004820152601c60248201527f4552433732313a20746f6b656e20616c7265616479206d696e746564000000006044820152606401610872565b612d9660008383600161287a565b6000818152606760205260409020546001600160a01b031615612dfb5760405162461bcd60e51b815260206004820152601c60248201527f4552433732313a20746f6b656e20616c7265616479206d696e746564000000006044820152606401610872565b6001600160a01b038216600081815260686020908152604080832080546001019055848352606790915280822080546001600160a01b0319168417905551839291907fddf252ad1be2c89b69c2b068fc378daa952ba7f163c4a11628f55a4df523b3ef908290a45050565b60006001612e73846113fa565b612e7d9190613a97565b600083815260986020526040902054909150808214612ed0576001600160a01b03841660009081526097602090815260408083208584528252808320548484528184208190558352609890915290208190555b5060009182526098602090815260408084208490556001600160a01b039094168352609781528383209183525290812055565b609954600090612f1590600190613a97565b6000838152609a602052604081205460998054939450909284908110612f4b57634e487b7160e01b600052603260045260246000fd5b906000526020600020015490508060998381548110612f7a57634e487b7160e01b600052603260045260246000fd5b6000918252602080832090910192909255828152609a90915260408082208490558582528120556099805480612fc057634e487b7160e01b600052603160045260246000fd5b6001900381819060005260206000200160009055905550505050565b6000612fe7836113fa565b6001600160a01b039093166000908152609760209081526040808320868452825280832085905593825260989052919091209190915550565b6060831561308c578251613085576001600160a01b0385163b6130855760405162461bcd60e51b815260206004820152601d60248201527f416464726573733a2063616c6c20746f206e6f6e2d636f6e74726163740000006044820152606401610872565b5081611b2f565b611b2f83838151156130a15781518083602001fd5b8060405162461bcd60e51b815260040161087291906137ac565b8280546130c790613af1565b90600052602060002090601f0160209004810192826130e9576000855561312f565b82601f1061310257805160ff191683800117855561312f565b8280016001018555821561312f579182015b8281111561312f578251825591602001919060010190613114565b5061313b92915061313f565b5090565b5b8082111561313b5760008155600101613140565b600061316761316284613a38565b613a07565b905082815283838301111561317b57600080fd5b828260208301376000602084830101529392505050565b600082601f8301126131a2578081fd5b612a8283833560208501613154565b60008083601f8401126131c2578182fd5b50813567ffffffffffffffff8111156131d9578182fd5b6020830191508360208285010111156131f157600080fd5b9250929050565b600060208284031215613209578081fd5b8135612a8281613b58565b600060208284031215613225578081fd5b8151612a8281613b58565b60008060408385031215613242578081fd5b823561324d81613b58565b9150602083013561325d81613b58565b809150509250929050565b60008060006060848603121561327c578081fd5b833561328781613b58565b9250602084013561329781613b58565b929592945050506040919091013590565b600080600080608085870312156132bd578081fd5b84356132c881613b58565b935060208501356132d881613b58565b925060408501359150606085013567ffffffffffffffff8111156132fa578182fd5b61330687828801613192565b91505092959194509250565b60008060408385031215613324578182fd5b823561332f81613b58565b91506020830135801515811461325d578182fd5b60008060408385031215613355578182fd5b823561336081613b58565b9150602083013567ffffffffffffffff81111561337b578182fd5b61338785828601613192565b9150509250929050565b600080604083850312156133a3578182fd5b82356133ae81613b58565b915060208301356004811061325d578182fd5b600080604083850312156133d3578182fd5b82356133de81613b58565b946020939093013593505050565b6000602082840312156133fd578081fd5b5035919050565b600060208284031215613415578081fd5b5051919050565b6000806040838503121561342e578182fd5b82359150602083013561325d81613b58565b600060208284031215613451578081fd5b8135612a8281613b6d565b60006020828403121561346d578081fd5b8151612a8281613b6d565b60008060008060006060868803121561348f578283fd5b853567ffffffffffffffff808211156134a6578485fd5b6134b289838a016131b1565b909750955060208801359150808211156134ca578485fd5b506134d7888289016131b1565b90945092505060408601356134eb81613b58565b809150509295509295909350565b60006020828403121561350a578081fd5b813567ffffffffffffffff811115613520578182fd5b8201601f81018413613530578182fd5b611b2f84823560208401613154565b600060208284031215613550578081fd5b815167ffffffffffffffff811115613566578182fd5b8201601f81018413613576578182fd5b805161358461316282613a38565b818152856020838501011115613598578384fd5b6135a9826020830160208601613aae565b95945050505050565b600080604083850312156135c4578182fd5b505080516020909101519092909150565b600081518084526135ed816020860160208601613aae565b601f01601f19169290920160200192915050565b6000815461360e81613af1565b60018281168015613626576001811461363757613666565b60ff19841687528287019450613666565b8560005260208060002060005b8581101561365d5781548a820152908401908201613644565b50505082870194505b5050505092915050565b60008251613682818460208701613aae565b9190910192915050565b6000825161369e818460208701613aae565b6b636f6e74726163745f75726960a01b920191825250600c01919050565b60006136c88285613601565b83516136d8818360208801613aae565b01949350505050565b60006136ed8284613601565b6618db185a5b595960ca1b81526007019392505050565b7f416363657373436f6e74726f6c3a206163636f756e742000000000000000000081526000835161373c816017850160208801613aae565b7001034b99036b4b9b9b4b733903937b6329607d1b601791840191820152835161376d816028840160208801613aae565b01602801949350505050565b6001600160a01b0385811682528416602082015260408101839052608060608201819052600090612cc3908301846135d5565b602081526000612a8260208301846135d5565b600060208083528184546137d281613af1565b808487015260406001808416600081146137f3576001811461380757613832565b60ff19851689840152606089019550613832565b898852868820885b8581101561382a5781548b820186015290830190880161380f565b8a0184019650505b509398975050505050505050565b6020808252602d908201527f4552433732313a2063616c6c6572206973206e6f7420746f6b656e206f776e6560408201526c1c881bdc88185c1c1c9bdd9959609a1b606082015260800190565b60208082526032908201527f4552433732313a207472616e7366657220746f206e6f6e20455243373231526560408201527131b2b4bb32b91034b6b83632b6b2b73a32b960711b606082015260800190565b60208082526025908201527f4552433732313a207472616e736665722066726f6d20696e636f72726563742060408201526437bbb732b960d91b606082015260800190565b6020808252602c908201527f46756e6374696f6e206d7573742062652063616c6c6564207468726f7567682060408201526b19195b1959d85d1958d85b1b60a21b606082015260800190565b6020808252602c908201527f46756e6374696f6e206d7573742062652063616c6c6564207468726f7567682060408201526b6163746976652070726f787960a01b606082015260800190565b6020808252602b908201527f496e697469616c697a61626c653a20636f6e7472616374206973206e6f74206960408201526a6e697469616c697a696e6760a81b606082015260800190565b604051601f8201601f1916810167ffffffffffffffff81118282101715613a3057613a30613b42565b604052919050565b600067ffffffffffffffff821115613a5257613a52613b42565b50601f01601f191660200190565b60008219821115613a7357613a73613b2c565b500190565b6000816000190483118215151615613a9257613a92613b2c565b500290565b600082821015613aa957613aa9613b2c565b500390565b60005b83811015613ac9578181015183820152602001613ab1565b838111156115175750506000910152565b600081613ae957613ae9613b2c565b506000190190565b600181811c90821680613b0557607f821691505b60208210811415613b2657634e487b7160e01b600052602260045260246000fd5b50919050565b634e487b7160e01b600052601160045260246000fd5b634e487b7160e01b600052604160045260246000fd5b6001600160a01b0381168114610f5557600080fd5b6001600160e01b031981168114610f5557600080fdfe360894a13ba1a3210667c828492db98dca3e2076cc3735a920a3ca505d382bbc65d7a28e3265b37a6474929f336521b332c1681b933f6cb9f3376673440d862a416464726573733a206c6f772d6c6576656c2064656c65676174652063616c6c206661696c65649f2df0fed2c77648de5860a4cc508cd0818c85b8b8a1ab4ceeef8d981c8956a6a2646970667358221220ca8df13977d0daf0727a0178a0f280d9417dde83439bab6d39c288d0bbb2b09064736f6c63430008040033",
  "devdoc": {
    "author": "@adradr - Adrian Lenard",
    "details": "Interacts with Rand VestingController",
    "kind": "dev",
    "methods": {
      "approve(address,uint256)": {
        "details": "See {IERC721-approve}."
      },
      "balanceOf(address)": {
        "details": "See {IERC721-balanceOf}."
      },
      "burn(uint256)": {
        "details": "Burns `tokenId`. See {ERC721-_burn}. Requirements: - The caller must own `tokenId` or be an approved operator."
      },
      "constructor": {
        "custom:oz-upgrades-unsafe-allow": "constructor"
      },
      "getApproved(uint256)": {
        "details": "See {IERC721-getApproved}."
      },
      "getRoleAdmin(bytes32)": {
        "details": "Returns the admin role that controls `role`. See {grantRole} and {revokeRole}. To change a role's admin, use {_setRoleAdmin}."
      },
      "grantRole(bytes32,address)": {
        "details": "Grants `role` to `account`. If `account` had not been already granted `role`, emits a {RoleGranted} event. Requirements: - the caller must have ``role``'s admin role. May emit a {RoleGranted} event."
      },
      "hasRole(bytes32,address)": {
        "details": "Returns `true` if `account` has been granted `role`."
      },
      "initialize(string,string,address)": {
        "details": "for upgradability its necessary to use initialize instead of simple constructor",
        "params": {
          "_erc721_name": "Name of the token like `Rand Vesting Controller ERC721`",
          "_erc721_symbol": "Short symbol like `vRND`",
          "_registry": "is the address of address registry"
        }
      },
      "isApprovedForAll(address,address)": {
        "details": "See {IERC721-isApprovedForAll}."
      },
      "mintInvestmentNFT(address,uint8)": {
        "details": "Only the VestingController can mint NFTs",
        "params": {
          "to": "is the address of the investor",
          "tokenLevel": "is the level of the NFT"
        },
        "returns": {
          "tokenId": "of the NFT"
        }
      },
      "name()": {
        "details": "See {IERC721Metadata-name}."
      },
      "ownerOf(uint256)": {
        "details": "See {IERC721-ownerOf}."
      },
      "paused()": {
        "details": "Returns true if the contract is paused, and false otherwise."
      },
      "proxiableUUID()": {
        "details": "Implementation of the ERC1822 {proxiableUUID} function. This returns the storage slot used by the implementation. It is used to validate the implementation's compatibility when performing an upgrade. IMPORTANT: A proxy pointing at a proxiable contract should not be considered proxiable itself, because this risks bricking a proxy that upgrades to it, by delegating to itself until out of gas. Thus it is critical that this function revert if invoked through a proxy. This is guaranteed by the `notDelegated` modifier."
      },
      "renounceRole(bytes32,address)": {
        "details": "Revokes `role` from the calling account. Roles are often managed via {grantRole} and {revokeRole}: this function's purpose is to provide a mechanism for accounts to lose their privileges if they are compromised (such as when a trusted device is misplaced). If the calling account had been revoked `role`, emits a {RoleRevoked} event. Requirements: - the caller must be `account`. May emit a {RoleRevoked} event."
      },
      "revokeRole(bytes32,address)": {
        "details": "Revokes `role` from `account`. If `account` had been granted `role`, emits a {RoleRevoked} event. Requirements: - the caller must have ``role``'s admin role. May emit a {RoleRevoked} event."
      },
      "safeTransferFrom(address,address,uint256)": {
        "details": "See {IERC721-safeTransferFrom}."
      },
      "safeTransferFrom(address,address,uint256,bytes)": {
        "details": "See {IERC721-safeTransferFrom}."
      },
      "setApprovalForAll(address,bool)": {
        "details": "See {IERC721-setApprovalForAll}."
      },
      "symbol()": {
        "details": "See {IERC721Metadata-symbol}."
      },
      "tokenByIndex(uint256)": {
        "details": "See {IERC721Enumerable-tokenByIndex}."
      },
      "tokenOfOwnerByIndex(address,uint256)": {
        "details": "See {IERC721Enumerable-tokenOfOwnerByIndex}."
      },
      "tokenURI(uint256)": {
        "details": "See {IERC721Metadata-tokenURI}."
      },
      "totalSupply()": {
        "details": "See {IERC721Enumerable-totalSupply}."
      },
      "transferFrom(address,address,uint256)": {
        "details": "See {IERC721-transferFrom}."
      },
      "updateRegistryAddress(address)": {
        "details": "emits RegistryAddressUpdated() and only accessible by MultiSig",
        "params": {
          "newAddress": "where the new Safety Module contract is located"
        }
      },
      "upgradeTo(address)": {
        "custom:oz-upgrades-unsafe-allow-reachable": "delegatecall",
        "details": "Upgrade the implementation of the proxy to `newImplementation`. Calls {_authorizeUpgrade}. Emits an {Upgraded} event."
      },
      "upgradeToAndCall(address,bytes)": {
        "custom:oz-upgrades-unsafe-allow-reachable": "delegatecall",
        "details": "Upgrade the implementation of the proxy to `newImplementation`, and subsequently execute the function call encoded in `data`. Calls {_authorizeUpgrade}. Emits an {Upgraded} event."
      }
    },
    "title": "Rand.network ERC721 Investors NFT contract",
    "version": 1
  },
  "userdoc": {
    "kind": "user",
    "methods": {
      "initialize(string,string,address)": {
        "notice": "Initializer allow proxy scheme"
      },
      "mintInvestmentNFT(address,uint8)": {
        "notice": "Mints a new NFT for an investor"
      },
      "updateRegistryAddress(address)": {
        "notice": "Function to let Rand to update the address of the Safety Module"
      }
    },
    "notice": "Holds NFTs for early investors",
    "version": 1
  },
  "storageLayout": {
    "storage": [
      {
        "astId": 780,
        "contract": "contracts/ecosystem/InvestorsNFT.sol:InvestorsNFT",
        "label": "_initialized",
        "offset": 0,
        "slot": "0",
        "type": "t_uint8"
      },
      {
        "astId": 783,
        "contract": "contracts/ecosystem/InvestorsNFT.sol:InvestorsNFT",
        "label": "_initializing",
        "offset": 1,
        "slot": "0",
        "type": "t_bool"
      },
      {
        "astId": 3228,
        "contract": "contracts/ecosystem/InvestorsNFT.sol:InvestorsNFT",
        "label": "__gap",
        "offset": 0,
        "slot": "1",
        "type": "t_array(t_uint256)50_storage"
      },
      {
        "astId": 3685,
        "contract": "contracts/ecosystem/InvestorsNFT.sol:InvestorsNFT",
        "label": "__gap",
        "offset": 0,
        "slot": "51",
        "type": "t_array(t_uint256)50_storage"
      },
      {
        "astId": 1318,
        "contract": "contracts/ecosystem/InvestorsNFT.sol:InvestorsNFT",
        "label": "_name",
        "offset": 0,
        "slot": "101",
        "type": "t_string_storage"
      },
      {
        "astId": 1320,
        "contract": "contracts/ecosystem/InvestorsNFT.sol:InvestorsNFT",
        "label": "_symbol",
        "offset": 0,
        "slot": "102",
        "type": "t_string_storage"
      },
      {
        "astId": 1324,
        "contract": "contracts/ecosystem/InvestorsNFT.sol:InvestorsNFT",
        "label": "_owners",
        "offset": 0,
        "slot": "103",
        "type": "t_mapping(t_uint256,t_address)"
      },
      {
        "astId": 1328,
        "contract": "contracts/ecosystem/InvestorsNFT.sol:InvestorsNFT",
        "label": "_balances",
        "offset": 0,
        "slot": "104",
        "type": "t_mapping(t_address,t_uint256)"
      },
      {
        "astId": 1332,
        "contract": "contracts/ecosystem/InvestorsNFT.sol:InvestorsNFT",
        "label": "_tokenApprovals",
        "offset": 0,
        "slot": "105",
        "type": "t_mapping(t_uint256,t_address)"
      },
      {
        "astId": 1338,
        "contract": "contracts/ecosystem/InvestorsNFT.sol:InvestorsNFT",
        "label": "_operatorApprovals",
        "offset": 0,
        "slot": "106",
        "type": "t_mapping(t_address,t_mapping(t_address,t_bool))"
      },
      {
        "astId": 2240,
        "contract": "contracts/ecosystem/InvestorsNFT.sol:InvestorsNFT",
        "label": "__gap",
        "offset": 0,
        "slot": "107",
        "type": "t_array(t_uint256)44_storage"
      },
      {
        "astId": 2455,
        "contract": "contracts/ecosystem/InvestorsNFT.sol:InvestorsNFT",
        "label": "_ownedTokens",
        "offset": 0,
        "slot": "151",
        "type": "t_mapping(t_address,t_mapping(t_uint256,t_uint256))"
      },
      {
        "astId": 2459,
        "contract": "contracts/ecosystem/InvestorsNFT.sol:InvestorsNFT",
        "label": "_ownedTokensIndex",
        "offset": 0,
        "slot": "152",
        "type": "t_mapping(t_uint256,t_uint256)"
      },
      {
        "astId": 2462,
        "contract": "contracts/ecosystem/InvestorsNFT.sol:InvestorsNFT",
        "label": "_allTokens",
        "offset": 0,
        "slot": "153",
        "type": "t_array(t_uint256)dyn_storage"
      },
      {
        "astId": 2466,
        "contract": "contracts/ecosystem/InvestorsNFT.sol:InvestorsNFT",
        "label": "_allTokensIndex",
        "offset": 0,
        "slot": "154",
        "type": "t_mapping(t_uint256,t_uint256)"
      },
      {
        "astId": 2798,
        "contract": "contracts/ecosystem/InvestorsNFT.sol:InvestorsNFT",
        "label": "__gap",
        "offset": 0,
        "slot": "155",
        "type": "t_array(t_uint256)46_storage"
      },
      {
        "astId": 2424,
        "contract": "contracts/ecosystem/InvestorsNFT.sol:InvestorsNFT",
        "label": "__gap",
        "offset": 0,
        "slot": "201",
        "type": "t_array(t_uint256)50_storage"
      },
      {
        "astId": 39,
        "contract": "contracts/ecosystem/InvestorsNFT.sol:InvestorsNFT",
        "label": "_roles",
        "offset": 0,
        "slot": "251",
        "type": "t_mapping(t_bytes32,t_struct(RoleData)34_storage)"
      },
      {
        "astId": 334,
        "contract": "contracts/ecosystem/InvestorsNFT.sol:InvestorsNFT",
        "label": "__gap",
        "offset": 0,
        "slot": "252",
        "type": "t_array(t_uint256)49_storage"
      },
      {
        "astId": 1099,
        "contract": "contracts/ecosystem/InvestorsNFT.sol:InvestorsNFT",
        "label": "_paused",
        "offset": 0,
        "slot": "301",
        "type": "t_bool"
      },
      {
        "astId": 1204,
        "contract": "contracts/ecosystem/InvestorsNFT.sol:InvestorsNFT",
        "label": "__gap",
        "offset": 0,
        "slot": "302",
        "type": "t_array(t_uint256)49_storage"
      },
      {
        "astId": 762,
        "contract": "contracts/ecosystem/InvestorsNFT.sol:InvestorsNFT",
        "label": "__gap",
        "offset": 0,
        "slot": "351",
        "type": "t_array(t_uint256)50_storage"
      },
      {
        "astId": 1077,
        "contract": "contracts/ecosystem/InvestorsNFT.sol:InvestorsNFT",
        "label": "__gap",
        "offset": 0,
        "slot": "401",
        "type": "t_array(t_uint256)50_storage"
      },
      {
        "astId": 1219,
        "contract": "contracts/ecosystem/InvestorsNFT.sol:InvestorsNFT",
        "label": "_status",
        "offset": 0,
        "slot": "451",
        "type": "t_uint256"
      },
      {
        "astId": 1288,
        "contract": "contracts/ecosystem/InvestorsNFT.sol:InvestorsNFT",
        "label": "__gap",
        "offset": 0,
        "slot": "452",
        "type": "t_array(t_uint256)49_storage"
      },
      {
        "astId": 4711,
        "contract": "contracts/ecosystem/InvestorsNFT.sol:InvestorsNFT",
        "label": "REGISTRY",
        "offset": 0,
        "slot": "501",
        "type": "t_contract(IAddressRegistry)5439"
      },
      {
        "astId": 4793,
        "contract": "contracts/ecosystem/InvestorsNFT.sol:InvestorsNFT",
        "label": "baseURI",
        "offset": 0,
        "slot": "502",
        "type": "t_string_storage"
      },
      {
        "astId": 4796,
        "contract": "contracts/ecosystem/InvestorsNFT.sol:InvestorsNFT",
        "label": "_tokenIdCounter",
        "offset": 0,
        "slot": "503",
        "type": "t_struct(Counter)3235_storage"
      },
      {
        "astId": 4806,
        "contract": "contracts/ecosystem/InvestorsNFT.sol:InvestorsNFT",
        "label": "_tokenLevel",
        "offset": 0,
        "slot": "504",
        "type": "t_mapping(t_uint256,t_enum(TokenLevel)4801)"
      }
    ],
    "types": {
      "t_address": {
        "encoding": "inplace",
        "label": "address",
        "numberOfBytes": "20"
      },
      "t_array(t_uint256)44_storage": {
        "base": "t_uint256",
        "encoding": "inplace",
        "label": "uint256[44]",
        "numberOfBytes": "1408"
      },
      "t_array(t_uint256)46_storage": {
        "base": "t_uint256",
        "encoding": "inplace",
        "label": "uint256[46]",
        "numberOfBytes": "1472"
      },
      "t_array(t_uint256)49_storage": {
        "base": "t_uint256",
        "encoding": "inplace",
        "label": "uint256[49]",
        "numberOfBytes": "1568"
      },
      "t_array(t_uint256)50_storage": {
        "base": "t_uint256",
        "encoding": "inplace",
        "label": "uint256[50]",
        "numberOfBytes": "1600"
      },
      "t_array(t_uint256)dyn_storage": {
        "base": "t_uint256",
        "encoding": "dynamic_array",
        "label": "uint256[]",
        "numberOfBytes": "32"
      },
      "t_bool": {
        "encoding": "inplace",
        "label": "bool",
        "numberOfBytes": "1"
      },
      "t_bytes32": {
        "encoding": "inplace",
        "label": "bytes32",
        "numberOfBytes": "32"
      },
      "t_contract(IAddressRegistry)5439": {
        "encoding": "inplace",
        "label": "contract IAddressRegistry",
        "numberOfBytes": "20"
      },
      "t_enum(TokenLevel)4801": {
        "encoding": "inplace",
        "label": "enum InvestorsNFT.TokenLevel",
        "numberOfBytes": "1"
      },
      "t_mapping(t_address,t_bool)": {
        "encoding": "mapping",
        "key": "t_address",
        "label": "mapping(address => bool)",
        "numberOfBytes": "32",
        "value": "t_bool"
      },
      "t_mapping(t_address,t_mapping(t_address,t_bool))": {
        "encoding": "mapping",
        "key": "t_address",
        "label": "mapping(address => mapping(address => bool))",
        "numberOfBytes": "32",
        "value": "t_mapping(t_address,t_bool)"
      },
      "t_mapping(t_address,t_mapping(t_uint256,t_uint256))": {
        "encoding": "mapping",
        "key": "t_address",
        "label": "mapping(address => mapping(uint256 => uint256))",
        "numberOfBytes": "32",
        "value": "t_mapping(t_uint256,t_uint256)"
      },
      "t_mapping(t_address,t_uint256)": {
        "encoding": "mapping",
        "key": "t_address",
        "label": "mapping(address => uint256)",
        "numberOfBytes": "32",
        "value": "t_uint256"
      },
      "t_mapping(t_bytes32,t_struct(RoleData)34_storage)": {
        "encoding": "mapping",
        "key": "t_bytes32",
        "label": "mapping(bytes32 => struct AccessControlUpgradeable.RoleData)",
        "numberOfBytes": "32",
        "value": "t_struct(RoleData)34_storage"
      },
      "t_mapping(t_uint256,t_address)": {
        "encoding": "mapping",
        "key": "t_uint256",
        "label": "mapping(uint256 => address)",
        "numberOfBytes": "32",
        "value": "t_address"
      },
      "t_mapping(t_uint256,t_enum(TokenLevel)4801)": {
        "encoding": "mapping",
        "key": "t_uint256",
        "label": "mapping(uint256 => enum InvestorsNFT.TokenLevel)",
        "numberOfBytes": "32",
        "value": "t_enum(TokenLevel)4801"
      },
      "t_mapping(t_uint256,t_uint256)": {
        "encoding": "mapping",
        "key": "t_uint256",
        "label": "mapping(uint256 => uint256)",
        "numberOfBytes": "32",
        "value": "t_uint256"
      },
      "t_string_storage": {
        "encoding": "bytes",
        "label": "string",
        "numberOfBytes": "32"
      },
      "t_struct(Counter)3235_storage": {
        "encoding": "inplace",
        "label": "struct CountersUpgradeable.Counter",
        "members": [
          {
            "astId": 3234,
            "contract": "contracts/ecosystem/InvestorsNFT.sol:InvestorsNFT",
            "label": "_value",
            "offset": 0,
            "slot": "0",
            "type": "t_uint256"
          }
        ],
        "numberOfBytes": "32"
      },
      "t_struct(RoleData)34_storage": {
        "encoding": "inplace",
        "label": "struct AccessControlUpgradeable.RoleData",
        "members": [
          {
            "astId": 31,
            "contract": "contracts/ecosystem/InvestorsNFT.sol:InvestorsNFT",
            "label": "members",
            "offset": 0,
            "slot": "0",
            "type": "t_mapping(t_address,t_bool)"
          },
          {
            "astId": 33,
            "contract": "contracts/ecosystem/InvestorsNFT.sol:InvestorsNFT",
            "label": "adminRole",
            "offset": 0,
            "slot": "1",
            "type": "t_bytes32"
          }
        ],
        "numberOfBytes": "64"
      },
      "t_uint256": {
        "encoding": "inplace",
        "label": "uint256",
        "numberOfBytes": "32"
      },
      "t_uint8": {
        "encoding": "inplace",
        "label": "uint8",
        "numberOfBytes": "1"
      }
    }
  }
}