{
  "address": "0x608180De6dBf15b212102C8f1B85E8f456c4D9ae",
  "abi": [
    {
      "inputs": [],
      "stateMutability": "nonpayable",
      "type": "constructor"
    },
    {
      "anonymous": false,
      "inputs": [
        {
          "indexed": false,
          "internalType": "address",
          "name": "previousAdmin",
          "type": "address"
        },
        {
          "indexed": false,
          "internalType": "address",
          "name": "newAdmin",
          "type": "address"
        }
      ],
      "name": "AdminChanged",
      "type": "event"
    },
    {
      "anonymous": false,
      "inputs": [
        {
          "indexed": true,
          "internalType": "address",
          "name": "owner",
          "type": "address"
        },
        {
          "indexed": true,
          "internalType": "address",
          "name": "approved",
          "type": "address"
        },
        {
          "indexed": true,
          "internalType": "uint256",
          "name": "tokenId",
          "type": "uint256"
        }
      ],
      "name": "Approval",
      "type": "event"
    },
    {
      "anonymous": false,
      "inputs": [
        {
          "indexed": true,
          "internalType": "address",
          "name": "owner",
          "type": "address"
        },
        {
          "indexed": true,
          "internalType": "address",
          "name": "operator",
          "type": "address"
        },
        {
          "indexed": false,
          "internalType": "bool",
          "name": "approved",
          "type": "bool"
        }
      ],
      "name": "ApprovalForAll",
      "type": "event"
    },
    {
      "anonymous": false,
      "inputs": [
        {
          "indexed": false,
          "internalType": "string",
          "name": "baseURI",
          "type": "string"
        }
      ],
      "name": "BaseURIChanged",
      "type": "event"
    },
    {
      "anonymous": false,
      "inputs": [
        {
          "indexed": true,
          "internalType": "address",
          "name": "beacon",
          "type": "address"
        }
      ],
      "name": "BeaconUpgraded",
      "type": "event"
    },
    {
      "anonymous": false,
      "inputs": [
        {
          "indexed": false,
          "internalType": "uint256",
          "name": "tokenId",
          "type": "uint256"
        },
        {
          "indexed": false,
          "internalType": "address",
          "name": "recipient",
          "type": "address"
        },
        {
          "indexed": false,
          "internalType": "uint256",
          "name": "amount",
          "type": "uint256"
        }
      ],
      "name": "ClaimedAmount",
      "type": "event"
    },
    {
      "anonymous": false,
      "inputs": [
        {
          "indexed": false,
          "internalType": "string",
          "name": "contractURI",
          "type": "string"
        }
      ],
      "name": "ContractURIChanged",
      "type": "event"
    },
    {
      "anonymous": false,
      "inputs": [
        {
          "indexed": false,
          "internalType": "uint256",
          "name": "amount",
          "type": "uint256"
        }
      ],
      "name": "FetchedRND",
      "type": "event"
    },
    {
      "anonymous": false,
      "inputs": [
        {
          "indexed": false,
          "internalType": "uint8",
          "name": "version",
          "type": "uint8"
        }
      ],
      "name": "Initialized",
      "type": "event"
    },
    {
      "anonymous": false,
      "inputs": [
        {
          "indexed": false,
          "internalType": "address",
          "name": "recipient",
          "type": "address"
        },
        {
          "indexed": false,
          "internalType": "uint256",
          "name": "amount",
          "type": "uint256"
        }
      ],
      "name": "InvestmentTransferred",
      "type": "event"
    },
    {
      "anonymous": false,
      "inputs": [
        {
          "components": [
            {
              "internalType": "uint256",
              "name": "rndTokenAmount",
              "type": "uint256"
            },
            {
              "internalType": "uint256",
              "name": "rndClaimedAmount",
              "type": "uint256"
            },
            {
              "internalType": "uint256",
              "name": "rndStakedAmount",
              "type": "uint256"
            },
            {
              "internalType": "uint256",
              "name": "vestingPeriod",
              "type": "uint256"
            },
            {
              "internalType": "uint256",
              "name": "vestingStartTime",
              "type": "uint256"
            },
            {
              "internalType": "uint256",
              "name": "mintTimestamp",
              "type": "uint256"
            },
            {
              "internalType": "bool",
              "name": "exists",
              "type": "bool"
            }
          ],
          "indexed": false,
          "internalType": "struct VestingControllerERC721.VestingInvestment",
          "name": "investment",
          "type": "tuple"
        },
        {
          "indexed": false,
          "internalType": "uint256",
          "name": "tokenId",
          "type": "uint256"
        }
      ],
      "name": "NewInvestmentTokenMinted",
      "type": "event"
    },
    {
      "anonymous": false,
      "inputs": [
        {
          "indexed": false,
          "internalType": "uint256",
          "name": "nftTokenId",
          "type": "uint256"
        },
        {
          "indexed": false,
          "internalType": "uint256",
          "name": "tokenId",
          "type": "uint256"
        },
        {
          "indexed": false,
          "internalType": "uint8",
          "name": "nftLevel",
          "type": "uint8"
        }
      ],
      "name": "NewInvestmentTokenMintedWithNFT",
      "type": "event"
    },
    {
      "anonymous": false,
      "inputs": [
        {
          "indexed": false,
          "internalType": "address",
          "name": "account",
          "type": "address"
        }
      ],
      "name": "Paused",
      "type": "event"
    },
    {
      "anonymous": false,
      "inputs": [
        {
          "indexed": false,
          "internalType": "address",
          "name": "recipient",
          "type": "address"
        },
        {
          "indexed": false,
          "internalType": "uint256",
          "name": "amount",
          "type": "uint256"
        }
      ],
      "name": "RNDTransferred",
      "type": "event"
    },
    {
      "anonymous": false,
      "inputs": [
        {
          "indexed": false,
          "internalType": "contract IAddressRegistry",
          "name": "newAddress",
          "type": "address"
        }
      ],
      "name": "RegistryAddressUpdated",
      "type": "event"
    },
    {
      "anonymous": false,
      "inputs": [
        {
          "indexed": true,
          "internalType": "bytes32",
          "name": "role",
          "type": "bytes32"
        },
        {
          "indexed": true,
          "internalType": "bytes32",
          "name": "previousAdminRole",
          "type": "bytes32"
        },
        {
          "indexed": true,
          "internalType": "bytes32",
          "name": "newAdminRole",
          "type": "bytes32"
        }
      ],
      "name": "RoleAdminChanged",
      "type": "event"
    },
    {
      "anonymous": false,
      "inputs": [
        {
          "indexed": true,
          "internalType": "bytes32",
          "name": "role",
          "type": "bytes32"
        },
        {
          "indexed": true,
          "internalType": "address",
          "name": "account",
          "type": "address"
        },
        {
          "indexed": true,
          "internalType": "address",
          "name": "sender",
          "type": "address"
        }
      ],
      "name": "RoleGranted",
      "type": "event"
    },
    {
      "anonymous": false,
      "inputs": [
        {
          "indexed": true,
          "internalType": "bytes32",
          "name": "role",
          "type": "bytes32"
        },
        {
          "indexed": true,
          "internalType": "address",
          "name": "account",
          "type": "address"
        },
        {
          "indexed": true,
          "internalType": "address",
          "name": "sender",
          "type": "address"
        }
      ],
      "name": "RoleRevoked",
      "type": "event"
    },
    {
      "anonymous": false,
      "inputs": [
        {
          "indexed": false,
          "internalType": "address",
          "name": "sender",
          "type": "address"
        },
        {
          "indexed": false,
          "internalType": "address",
          "name": "recipient",
          "type": "address"
        },
        {
          "indexed": false,
          "internalType": "uint256",
          "name": "amount",
          "type": "uint256"
        },
        {
          "indexed": false,
          "internalType": "uint256",
          "name": "timestamp",
          "type": "uint256"
        },
        {
          "indexed": false,
          "internalType": "uint256",
          "name": "chainId",
          "type": "uint256"
        },
        {
          "indexed": false,
          "internalType": "bytes",
          "name": "signature",
          "type": "bytes"
        }
      ],
      "name": "SignatureUsed",
      "type": "event"
    },
    {
      "anonymous": false,
      "inputs": [
        {
          "indexed": false,
          "internalType": "uint256",
          "name": "tokenId",
          "type": "uint256"
        },
        {
          "indexed": false,
          "internalType": "uint256",
          "name": "amount",
          "type": "uint256"
        }
      ],
      "name": "StakedAmountModified",
      "type": "event"
    },
    {
      "anonymous": false,
      "inputs": [
        {
          "indexed": true,
          "internalType": "address",
          "name": "from",
          "type": "address"
        },
        {
          "indexed": true,
          "internalType": "address",
          "name": "to",
          "type": "address"
        },
        {
          "indexed": true,
          "internalType": "uint256",
          "name": "tokenId",
          "type": "uint256"
        }
      ],
      "name": "Transfer",
      "type": "event"
    },
    {
      "anonymous": false,
      "inputs": [
        {
          "indexed": false,
          "internalType": "address",
          "name": "account",
          "type": "address"
        }
      ],
      "name": "Unpaused",
      "type": "event"
    },
    {
      "anonymous": false,
      "inputs": [
        {
          "indexed": true,
          "internalType": "address",
          "name": "implementation",
          "type": "address"
        }
      ],
      "name": "Upgraded",
      "type": "event"
    },
    {
      "inputs": [],
      "name": "DEFAULT_ADMIN_ROLE",
      "outputs": [
        {
          "internalType": "bytes32",
          "name": "",
          "type": "bytes32"
        }
      ],
      "stateMutability": "view",
      "type": "function"
    },
    {
      "inputs": [],
      "name": "MINTER_ROLE",
      "outputs": [
        {
          "internalType": "bytes32",
          "name": "",
          "type": "bytes32"
        }
      ],
      "stateMutability": "view",
      "type": "function"
    },
    {
      "inputs": [],
      "name": "PAUSER_ROLE",
      "outputs": [
        {
          "internalType": "bytes32",
          "name": "",
          "type": "bytes32"
        }
      ],
      "stateMutability": "view",
      "type": "function"
    },
    {
      "inputs": [],
      "name": "PERIOD_SECONDS",
      "outputs": [
        {
          "internalType": "uint256",
          "name": "",
          "type": "uint256"
        }
      ],
      "stateMutability": "view",
      "type": "function"
    },
    {
      "inputs": [],
      "name": "READER_ROLE",
      "outputs": [
        {
          "internalType": "bytes32",
          "name": "",
          "type": "bytes32"
        }
      ],
      "stateMutability": "view",
      "type": "function"
    },
    {
      "inputs": [],
      "name": "REGISTRY",
      "outputs": [
        {
          "internalType": "contract IAddressRegistry",
          "name": "",
          "type": "address"
        }
      ],
      "stateMutability": "view",
      "type": "function"
    },
    {
      "inputs": [
        {
          "internalType": "address",
          "name": "to",
          "type": "address"
        },
        {
          "internalType": "uint256",
          "name": "tokenId",
          "type": "uint256"
        }
      ],
      "name": "approve",
      "outputs": [],
      "stateMutability": "nonpayable",
      "type": "function"
    },
    {
      "inputs": [
        {
          "internalType": "address",
          "name": "owner",
          "type": "address"
        }
      ],
      "name": "balanceOf",
      "outputs": [
        {
          "internalType": "uint256",
          "name": "",
          "type": "uint256"
        }
      ],
      "stateMutability": "view",
      "type": "function"
    },
    {
      "inputs": [],
      "name": "baseURI",
      "outputs": [
        {
          "internalType": "string",
          "name": "",
          "type": "string"
        }
      ],
      "stateMutability": "view",
      "type": "function"
    },
    {
      "inputs": [
        {
          "internalType": "uint256",
          "name": "tokenId",
          "type": "uint256"
        }
      ],
      "name": "burn",
      "outputs": [],
      "stateMutability": "nonpayable",
      "type": "function"
    },
    {
      "inputs": [
        {
          "internalType": "uint256",
          "name": "tokenId",
          "type": "uint256"
        },
        {
          "internalType": "uint256",
          "name": "amount",
          "type": "uint256"
        }
      ],
      "name": "claimTokens",
      "outputs": [],
      "stateMutability": "nonpayable",
      "type": "function"
    },
    {
      "inputs": [
        {
          "internalType": "bytes",
          "name": "signature",
          "type": "bytes"
        },
        {
          "internalType": "uint256",
          "name": "signatureTimestamp",
          "type": "uint256"
        },
        {
          "internalType": "address",
          "name": "recipient",
          "type": "address"
        },
        {
          "internalType": "uint256",
          "name": "rndTokenAmount",
          "type": "uint256"
        }
      ],
      "name": "distributeTokens",
      "outputs": [],
      "stateMutability": "nonpayable",
      "type": "function"
    },
    {
      "inputs": [
        {
          "internalType": "uint256",
          "name": "tokenId",
          "type": "uint256"
        }
      ],
      "name": "getApproved",
      "outputs": [
        {
          "internalType": "address",
          "name": "",
          "type": "address"
        }
      ],
      "stateMutability": "view",
      "type": "function"
    },
    {
      "inputs": [
        {
          "internalType": "uint256",
          "name": "tokenId",
          "type": "uint256"
        }
      ],
      "name": "getClaimableTokens",
      "outputs": [
        {
          "internalType": "uint256",
          "name": "",
          "type": "uint256"
        }
      ],
      "stateMutability": "view",
      "type": "function"
    },
    {
      "inputs": [
        {
          "internalType": "uint256",
          "name": "tokenId",
          "type": "uint256"
        }
      ],
      "name": "getInvestmentInfo",
      "outputs": [
        {
          "internalType": "uint256",
          "name": "rndTokenAmount",
          "type": "uint256"
        },
        {
          "internalType": "uint256",
          "name": "rndClaimedAmount",
          "type": "uint256"
        },
        {
          "internalType": "uint256",
          "name": "vestingPeriod",
          "type": "uint256"
        },
        {
          "internalType": "uint256",
          "name": "vestingStartTime",
          "type": "uint256"
        },
        {
          "internalType": "uint256",
          "name": "rndStakedAmount",
          "type": "uint256"
        }
      ],
      "stateMutability": "view",
      "type": "function"
    },
    {
      "inputs": [
        {
          "internalType": "uint256",
          "name": "nftTokenId",
          "type": "uint256"
        }
      ],
      "name": "getInvestmentInfoForNFT",
      "outputs": [
        {
          "internalType": "uint256",
          "name": "rndTokenAmount",
          "type": "uint256"
        },
        {
          "internalType": "uint256",
          "name": "rndClaimedAmount",
          "type": "uint256"
        }
      ],
      "stateMutability": "view",
      "type": "function"
    },
    {
      "inputs": [
        {
          "internalType": "bytes32",
          "name": "role",
          "type": "bytes32"
        }
      ],
      "name": "getRoleAdmin",
      "outputs": [
        {
          "internalType": "bytes32",
          "name": "",
          "type": "bytes32"
        }
      ],
      "stateMutability": "view",
      "type": "function"
    },
    {
      "inputs": [
        {
          "internalType": "uint256",
          "name": "tokenIdNFT",
          "type": "uint256"
        }
      ],
      "name": "getTokenIdOfNFT",
      "outputs": [
        {
          "internalType": "uint256",
          "name": "tokenId",
          "type": "uint256"
        }
      ],
      "stateMutability": "view",
      "type": "function"
    },
    {
      "inputs": [
        {
          "internalType": "bytes32",
          "name": "role",
          "type": "bytes32"
        },
        {
          "internalType": "address",
          "name": "account",
          "type": "address"
        }
      ],
      "name": "grantRole",
      "outputs": [],
      "stateMutability": "nonpayable",
      "type": "function"
    },
    {
      "inputs": [
        {
          "internalType": "bytes32",
          "name": "role",
          "type": "bytes32"
        },
        {
          "internalType": "address",
          "name": "account",
          "type": "address"
        }
      ],
      "name": "hasRole",
      "outputs": [
        {
          "internalType": "bool",
          "name": "",
          "type": "bool"
        }
      ],
      "stateMutability": "view",
      "type": "function"
    },
    {
      "inputs": [
        {
          "internalType": "string",
          "name": "_erc721_name",
          "type": "string"
        },
        {
          "internalType": "string",
          "name": "_erc721_symbol",
          "type": "string"
        },
        {
          "internalType": "uint256",
          "name": "_periodSeconds",
          "type": "uint256"
        },
        {
          "internalType": "contract IAddressRegistry",
          "name": "_registry",
          "type": "address"
        }
      ],
      "name": "initialize",
      "outputs": [],
      "stateMutability": "nonpayable",
      "type": "function"
    },
    {
      "inputs": [
        {
          "internalType": "address",
          "name": "owner",
          "type": "address"
        },
        {
          "internalType": "address",
          "name": "operator",
          "type": "address"
        }
      ],
      "name": "isApprovedForAll",
      "outputs": [
        {
          "internalType": "bool",
          "name": "",
          "type": "bool"
        }
      ],
      "stateMutability": "view",
      "type": "function"
    },
    {
      "inputs": [
        {
          "internalType": "bytes",
          "name": "signature",
          "type": "bytes"
        },
        {
          "internalType": "uint256",
          "name": "signatureTimestamp",
          "type": "uint256"
        },
        {
          "components": [
            {
              "internalType": "address",
              "name": "recipient",
              "type": "address"
            },
            {
              "internalType": "uint256",
              "name": "rndTokenAmount",
              "type": "uint256"
            },
            {
              "internalType": "uint256",
              "name": "vestingPeriod",
              "type": "uint256"
            },
            {
              "internalType": "uint256",
              "name": "vestingStartTime",
              "type": "uint256"
            },
            {
              "internalType": "uint256",
              "name": "cliffPeriod",
              "type": "uint256"
            }
          ],
          "internalType": "struct VestingControllerERC721.MintParameters",
          "name": "params",
          "type": "tuple"
        },
        {
          "internalType": "uint8",
          "name": "nftLevel",
          "type": "uint8"
        }
      ],
      "name": "mintNewInvestment",
      "outputs": [
        {
          "internalType": "uint256",
          "name": "tokenId",
          "type": "uint256"
        }
      ],
      "stateMutability": "nonpayable",
      "type": "function"
    },
    {
      "inputs": [
        {
          "internalType": "uint256",
          "name": "tokenId",
          "type": "uint256"
        },
        {
          "internalType": "uint256",
          "name": "amount",
          "type": "uint256"
        }
      ],
      "name": "modifyStakedAmount",
      "outputs": [],
      "stateMutability": "nonpayable",
      "type": "function"
    },
    {
      "inputs": [],
      "name": "name",
      "outputs": [
        {
          "internalType": "string",
          "name": "",
          "type": "string"
        }
      ],
      "stateMutability": "view",
      "type": "function"
    },
    {
      "inputs": [
        {
          "internalType": "uint256",
          "name": "tokenId",
          "type": "uint256"
        }
      ],
      "name": "ownerOf",
      "outputs": [
        {
          "internalType": "address",
          "name": "",
          "type": "address"
        }
      ],
      "stateMutability": "view",
      "type": "function"
    },
    {
      "inputs": [],
      "name": "pause",
      "outputs": [],
      "stateMutability": "nonpayable",
      "type": "function"
    },
    {
      "inputs": [],
      "name": "paused",
      "outputs": [
        {
          "internalType": "bool",
          "name": "",
          "type": "bool"
        }
      ],
      "stateMutability": "view",
      "type": "function"
    },
    {
      "inputs": [],
      "name": "proxiableUUID",
      "outputs": [
        {
          "internalType": "bytes32",
          "name": "",
          "type": "bytes32"
        }
      ],
      "stateMutability": "view",
      "type": "function"
    },
    {
      "inputs": [
        {
          "internalType": "bytes32",
          "name": "role",
          "type": "bytes32"
        },
        {
          "internalType": "address",
          "name": "account",
          "type": "address"
        }
      ],
      "name": "renounceRole",
      "outputs": [],
      "stateMutability": "nonpayable",
      "type": "function"
    },
    {
      "inputs": [
        {
          "internalType": "bytes32",
          "name": "role",
          "type": "bytes32"
        },
        {
          "internalType": "address",
          "name": "account",
          "type": "address"
        }
      ],
      "name": "revokeRole",
      "outputs": [],
      "stateMutability": "nonpayable",
      "type": "function"
    },
    {
      "inputs": [
        {
          "internalType": "address",
          "name": "from",
          "type": "address"
        },
        {
          "internalType": "address",
          "name": "to",
          "type": "address"
        },
        {
          "internalType": "uint256",
          "name": "tokenId",
          "type": "uint256"
        }
      ],
      "name": "safeTransferFrom",
      "outputs": [],
      "stateMutability": "nonpayable",
      "type": "function"
    },
    {
      "inputs": [
        {
          "internalType": "address",
          "name": "from",
          "type": "address"
        },
        {
          "internalType": "address",
          "name": "to",
          "type": "address"
        },
        {
          "internalType": "uint256",
          "name": "tokenId",
          "type": "uint256"
        },
        {
          "internalType": "bytes",
          "name": "data",
          "type": "bytes"
        }
      ],
      "name": "safeTransferFrom",
      "outputs": [],
      "stateMutability": "nonpayable",
      "type": "function"
    },
    {
      "inputs": [
        {
          "internalType": "address",
          "name": "operator",
          "type": "address"
        },
        {
          "internalType": "bool",
          "name": "approved",
          "type": "bool"
        }
      ],
      "name": "setApprovalForAll",
      "outputs": [],
      "stateMutability": "nonpayable",
      "type": "function"
    },
    {
      "inputs": [
        {
          "internalType": "bytes4",
          "name": "interfaceId",
          "type": "bytes4"
        }
      ],
      "name": "supportsInterface",
      "outputs": [
        {
          "internalType": "bool",
          "name": "",
          "type": "bool"
        }
      ],
      "stateMutability": "view",
      "type": "function"
    },
    {
      "inputs": [],
      "name": "symbol",
      "outputs": [
        {
          "internalType": "string",
          "name": "",
          "type": "string"
        }
      ],
      "stateMutability": "view",
      "type": "function"
    },
    {
      "inputs": [
        {
          "internalType": "uint256",
          "name": "index",
          "type": "uint256"
        }
      ],
      "name": "tokenByIndex",
      "outputs": [
        {
          "internalType": "uint256",
          "name": "",
          "type": "uint256"
        }
      ],
      "stateMutability": "view",
      "type": "function"
    },
    {
      "inputs": [
        {
          "internalType": "address",
          "name": "owner",
          "type": "address"
        },
        {
          "internalType": "uint256",
          "name": "index",
          "type": "uint256"
        }
      ],
      "name": "tokenOfOwnerByIndex",
      "outputs": [
        {
          "internalType": "uint256",
          "name": "",
          "type": "uint256"
        }
      ],
      "stateMutability": "view",
      "type": "function"
    },
    {
      "inputs": [
        {
          "internalType": "uint256",
          "name": "tokenId",
          "type": "uint256"
        }
      ],
      "name": "tokenURI",
      "outputs": [
        {
          "internalType": "string",
          "name": "",
          "type": "string"
        }
      ],
      "stateMutability": "view",
      "type": "function"
    },
    {
      "inputs": [],
      "name": "totalSupply",
      "outputs": [
        {
          "internalType": "uint256",
          "name": "",
          "type": "uint256"
        }
      ],
      "stateMutability": "view",
      "type": "function"
    },
    {
      "inputs": [
        {
          "internalType": "address",
          "name": "from",
          "type": "address"
        },
        {
          "internalType": "address",
          "name": "to",
          "type": "address"
        },
        {
          "internalType": "uint256",
          "name": "tokenId",
          "type": "uint256"
        }
      ],
      "name": "transferFrom",
      "outputs": [],
      "stateMutability": "nonpayable",
      "type": "function"
    },
    {
      "inputs": [],
      "name": "unpause",
      "outputs": [],
      "stateMutability": "nonpayable",
      "type": "function"
    },
    {
      "inputs": [
        {
          "internalType": "contract IAddressRegistry",
          "name": "newAddress",
          "type": "address"
        }
      ],
      "name": "updateRegistryAddress",
      "outputs": [],
      "stateMutability": "nonpayable",
      "type": "function"
    },
    {
      "inputs": [
        {
          "internalType": "address",
          "name": "newImplementation",
          "type": "address"
        }
      ],
      "name": "upgradeTo",
      "outputs": [],
      "stateMutability": "nonpayable",
      "type": "function"
    },
    {
      "inputs": [
        {
          "internalType": "address",
          "name": "newImplementation",
          "type": "address"
        },
        {
          "internalType": "bytes",
          "name": "data",
          "type": "bytes"
        }
      ],
      "name": "upgradeToAndCall",
      "outputs": [],
      "stateMutability": "payable",
      "type": "function"
    }
  ],
  "transactionHash": "0x4c84b9e173d547ce5c75e456c60637d3a4fc2c74b2c68c798cc0716fced0704a",
  "args": [],
  "numDeployments": 1,
  "solcInputHash": "05b32fa379d97d192550646ce9f3457a",
  "bytecode": "0x60a06040523060601b6080523480156200001857600080fd5b50600054610100900460ff16158080156200003a5750600054600160ff909116105b806200006a575062000057306200014460201b62002ac51760201c565b1580156200006a575060005460ff166001145b620000d25760405162461bcd60e51b815260206004820152602e60248201527f496e697469616c697a61626c653a20636f6e747261637420697320616c72656160448201526d191e481a5b9a5d1a585b1a5e995960921b606482015260840160405180910390fd5b6000805460ff191660011790558015620000f6576000805461ff0019166101001790555b80156200013d576000805461ff0019169055604051600181527f7f26b83ff96e1f2b6a682f133852f6798a09c465da95921460cefb38474024989060200160405180910390a15b5062000153565b6001600160a01b03163b151590565b60805160601c615c216200018e60003960008181611092015281816110d2015281816113b7015281816113f701526115270152615c216000f3fe6080604052600436106102725760003560e01c80635c975abb1161014f57806396f6b210116100c1578063c87b56dd1161007a578063c87b56dd146107a1578063d5391393146107c1578063d547741f146107f5578063d7ddd03314610815578063e63ab1e91461082c578063e985e9c51461084e57600080fd5b806396f6b210146106d7578063a217fddf1461070c578063a22cb46514610721578063b88d4fde14610741578063bd3a13f614610761578063c57a88251461078157600080fd5b806382922fcc1161011357806382922fcc1461061f5780638456cb591461064d5780638b70a3e5146106625780638ea6bde31461068257806391d14854146106a257806395d89b41146106c257600080fd5b80635c975abb146105695780636352211e146105825780636c0360eb146105a257806370a08231146105b757806371a316be146105d757600080fd5b80632f745c59116101e857806342966c68116101ac57806342966c68146104ad578063458c4458146104cd5780634f1ef286146105015780634f6ccce71461051457806352d1902d1461053457806358835e171461054957600080fd5b80632f745c591461041857806336568abe146104385780633659cfe6146104585780633f4ba83a1461047857806342842e0e1461048d57600080fd5b806318160ddd1161023a57806318160ddd1461034957806323b872dd14610368578063248a9ca314610388578063257a0c39146103b8578063274766ce146103d85780632f2ff15d146103f857600080fd5b806301ffc9a71461027757806306433b1b146102ac57806306fdde03146102e5578063081812fc14610307578063095ea7b314610327575b600080fd5b34801561028357600080fd5b50610297610292366004615333565b610897565b60405190151581526020015b60405180910390f35b3480156102b857600080fd5b506101f5546102cd906001600160a01b031681565b6040516001600160a01b0390911681526020016102a3565b3480156102f157600080fd5b506102fa6108a8565b6040516102a39190615701565b34801561031357600080fd5b506102cd6103223660046152df565b61093a565b34801561033357600080fd5b50610347610342366004615298565b610961565b005b34801561035557600080fd5b506099545b6040519081526020016102a3565b34801561037457600080fd5b50610347610383366004615173565b610a7c565b34801561039457600080fd5b5061035a6103a33660046152df565b600090815260fb602052604090206001015490565b3480156103c457600080fd5b5061035a6103d33660046152df565b610aad565b3480156103e457600080fd5b5061035a6103f33660046153ca565b610d19565b34801561040457600080fd5b5061034761041336600461530f565b610f4e565b34801561042457600080fd5b5061035a610433366004615298565b610f73565b34801561044457600080fd5b5061034761045336600461530f565b611009565b34801561046457600080fd5b50610347610473366004615103565b611087565b34801561048457600080fd5b50610347611167565b34801561049957600080fd5b506103476104a8366004615173565b611187565b3480156104b957600080fd5b506103476104c83660046152df565b6111a2565b3480156104d957600080fd5b5061035a7fc757f485a2bb9eadbad5c86f7618c2a7a2ecb41b29f8610fb0e8bea3ed5ab6cf81565b61034761050f36600461524a565b6113ac565b34801561052057600080fd5b5061035a61052f3660046152df565b611479565b34801561054057600080fd5b5061035a61151a565b34801561055557600080fd5b50610347610564366004615578565b6115cd565b34801561057557600080fd5b5061012d5460ff16610297565b34801561058e57600080fd5b506102cd61059d3660046152df565b6117b0565b3480156105ae57600080fd5b506102fa611810565b3480156105c357600080fd5b5061035a6105d2366004615103565b61189f565b3480156105e357600080fd5b506105f76105f23660046152df565b611925565b604080519586526020860194909452928401919091526060830152608082015260a0016102a3565b34801561062b57600080fd5b5061035a61063a3660046152df565b60009081526101fc602052604090205490565b34801561065957600080fd5b50610347611beb565b34801561066e57600080fd5b5061034761067d36600461536b565b611c0b565b34801561068e57600080fd5b5061034761069d366004615578565b61204a565b3480156106ae57600080fd5b506102976106bd36600461530f565b61249d565b3480156106ce57600080fd5b506102fa6124c8565b3480156106e357600080fd5b506106f76106f23660046152df565b6124d7565b604080519283526020830191909152016102a3565b34801561071857600080fd5b5061035a600081565b34801561072d57600080fd5b5061034761073c36600461521d565b6126c0565b34801561074d57600080fd5b5061034761075c3660046151b3565b6126cb565b34801561076d57600080fd5b5061034761077c36600461547c565b6126fd565b34801561078d57600080fd5b5061034761079c366004615103565b6129ca565b3480156107ad57600080fd5b506102fa6107bc3660046152df565b612a2c565b3480156107cd57600080fd5b5061035a7f9f2df0fed2c77648de5860a4cc508cd0818c85b8b8a1ab4ceeef8d981c8956a681565b34801561080157600080fd5b5061034761081036600461530f565b612aa0565b34801561082157600080fd5b5061035a6101f95481565b34801561083857600080fd5b5061035a600080516020615ba583398151915281565b34801561085a57600080fd5b5061029761086936600461513b565b6001600160a01b039182166000908152606a6020908152604080832093909416825291909152205460ff1690565b60006108a282612ad4565b92915050565b6060606580546108b790615ae4565b80601f01602080910402602001604051908101604052809291908181526020018280546108e390615ae4565b80156109305780601f1061090557610100808354040283529160200191610930565b820191906000526020600020905b81548152906001019060200180831161091357829003601f168201915b5050505050905090565b600061094582612af9565b506000908152606960205260409020546001600160a01b031690565b600061096c826117b0565b9050806001600160a01b0316836001600160a01b031614156109df5760405162461bcd60e51b815260206004820152602160248201527f4552433732313a20617070726f76616c20746f2063757272656e74206f776e656044820152603960f91b60648201526084015b60405180910390fd5b336001600160a01b03821614806109fb57506109fb8133610869565b610a6d5760405162461bcd60e51b815260206004820152603d60248201527f4552433732313a20617070726f76652063616c6c6572206973206e6f7420746f60448201527f6b656e206f776e6572206f7220617070726f76656420666f7220616c6c00000060648201526084016109d6565b610a778383612b58565b505050565b610a863382612bc6565b610aa25760405162461bcd60e51b81526004016109d690615714565b610a77838383612c44565b6000818133610abb836117b0565b6001600160a01b03161490506000336101f55460408051633f43040760e01b815290516001600160a01b03938416939092169163e09c0c47918391633f43040791600480820192600092909190829003018186803b158015610b1c57600080fd5b505afa158015610b30573d6000803e3d6000fd5b505050506040513d6000823e601f3d908101601f19168201604052610b589190810190615505565b6040518263ffffffff1660e01b8152600401610b749190615701565b60206040518083038186803b158015610b8c57600080fd5b505afa158015610ba0573d6000803e3d6000fd5b505050506040513d601f19601f82011682018060405250810190610bc4919061511f565b6001600160a01b03161490506000336101f554604080516305189e0d60e21b815290516001600160a01b03938416939092169163e09c0c47918391631462783491600480820192600092909190829003018186803b158015610c2557600080fd5b505afa158015610c39573d6000803e3d6000fd5b505050506040513d6000823e601f3d908101601f19168201604052610c619190810190615505565b6040518263ffffffff1660e01b8152600401610c7d9190615701565b60206040518083038186803b158015610c9557600080fd5b505afa158015610ca9573d6000803e3d6000fd5b505050506040513d601f19601f82011682018060405250810190610ccd919061511f565b6001600160a01b03161490508280610ce25750815b80610cea5750805b610d065760405162461bcd60e51b81526004016109d690615844565b610d0f86612d09565b9695505050505050565b6000610d23612e34565b610d2b612e7d565b610d36858585612ed9565b905060ff821615610f3b576101f5546040805163015c87cd60e71b815290516000926001600160a01b03169163e09c0c4791839163ae43e6809160048083019288929190829003018186803b158015610d8e57600080fd5b505afa158015610da2573d6000803e3d6000fd5b505050506040513d6000823e601f3d908101601f19168201604052610dca9190810190615505565b6040518263ffffffff1660e01b8152600401610de69190615701565b60206040518083038186803b158015610dfe57600080fd5b505afa158015610e12573d6000803e3d6000fd5b505050506040513d601f19601f82011682018060405250810190610e36919061511f565b6001600160a01b0316635c8390988560000151600186610e569190615a7e565b6040516001600160e01b031960e085901b1681526001600160a01b03909216600483015260ff166024820152604401602060405180830381600087803b158015610e9f57600080fd5b505af1158015610eb3573d6000803e3d6000fd5b505050506040513d601f19601f82011682018060405250810190610ed791906152f7565b90507fe5be80de3c7649a2eeb5bdc117cf5a8100369f7e7c8cf3c592031e25d3c9b9888183610f07600187615a7e565b60408051938452602084019290925260ff169082015260600160405180910390a160009081526101fc602052604090208190555b610f4660016101c355565b949350505050565b600082815260fb6020526040902060010154610f6981613194565b610a77838361319e565b6000610f7e8361189f565b8210610fe05760405162461bcd60e51b815260206004820152602b60248201527f455243373231456e756d657261626c653a206f776e657220696e646578206f7560448201526a74206f6620626f756e647360a81b60648201526084016109d6565b506001600160a01b03919091166000908152609760209081526040808320938352929052205490565b6001600160a01b03811633146110795760405162461bcd60e51b815260206004820152602f60248201527f416363657373436f6e74726f6c3a2063616e206f6e6c792072656e6f756e636560448201526e103937b632b9903337b91039b2b63360891b60648201526084016109d6565b6110838282613224565b5050565b306001600160a01b037f00000000000000000000000000000000000000000000000000000000000000001614156110d05760405162461bcd60e51b81526004016109d6906157f8565b7f00000000000000000000000000000000000000000000000000000000000000006001600160a01b0316611119600080516020615b85833981519152546001600160a01b031690565b6001600160a01b03161461113f5760405162461bcd60e51b81526004016109d69061587b565b6111488161328b565b6040805160008082526020820190925261116491839190613296565b50565b600080516020615ba583398151915261117f81613194565b611164613410565b610a77838383604051806020016040528060008152506126cb565b60006111ad81613194565b60008281526101fd602052604090206006015460ff166111df5760405162461bcd60e51b81526004016109d690615957565b60008281526101fd60205260408120805460018201546002909201549092816112088486615a67565b6112129190615a67565b6101f554604080516324d13ae960e11b815290519293506001600160a01b039091169163e09c0c479183916349a275d291600480820192600092909190829003018186803b15801561126357600080fd5b505afa158015611277573d6000803e3d6000fd5b505050506040513d6000823e601f3d908101601f1916820160405261129f9190810190615505565b6040518263ffffffff1660e01b81526004016112bb9190615701565b60206040518083038186803b1580156112d357600080fd5b505afa1580156112e7573d6000803e3d6000fd5b505050506040513d601f19601f8201168201806040525081019061130b919061511f565b6001600160a01b031663a9059cbb336040516001600160e01b031960e084901b1681526001600160a01b03909116600482015260248101849052604401602060405180830381600087803b15801561136257600080fd5b505af1158015611376573d6000803e3d6000fd5b505050506040513d601f19601f8201168201806040525081019061139a91906152c3565b506113a486613463565b505050505050565b306001600160a01b037f00000000000000000000000000000000000000000000000000000000000000001614156113f55760405162461bcd60e51b81526004016109d6906157f8565b7f00000000000000000000000000000000000000000000000000000000000000006001600160a01b031661143e600080516020615b85833981519152546001600160a01b031690565b6001600160a01b0316146114645760405162461bcd60e51b81526004016109d69061587b565b61146d8261328b565b61108382826001613296565b600061148460995490565b82106114e75760405162461bcd60e51b815260206004820152602c60248201527f455243373231456e756d657261626c653a20676c6f62616c20696e646578206f60448201526b7574206f6620626f756e647360a01b60648201526084016109d6565b6099828154811061150857634e487b7160e01b600052603260045260246000fd5b90600052602060002001549050919050565b6000306001600160a01b037f000000000000000000000000000000000000000000000000000000000000000016146115ba5760405162461bcd60e51b815260206004820152603860248201527f555550535570677261646561626c653a206d757374206e6f742062652063616c60448201527f6c6564207468726f7567682064656c656761746563616c6c000000000000000060648201526084016109d6565b50600080516020615b8583398151915290565b6115d5612e34565b6101f55460408051633f43040760e01b8152905133926001600160a01b03169163e09c0c47918391633f430407916004808301926000929190829003018186803b15801561162257600080fd5b505afa158015611636573d6000803e3d6000fd5b505050506040513d6000823e601f3d908101601f1916820160405261165e9190810190615505565b6040518263ffffffff1660e01b815260040161167a9190615701565b60206040518083038186803b15801561169257600080fd5b505afa1580156116a6573d6000803e3d6000fd5b505050506040513d601f19601f820116820180604052508101906116ca919061511f565b6001600160a01b03161461172a5760405162461bcd60e51b815260206004820152602160248201527f5643323a204e6f742061636365737369626c65206279206d73672e73656e64656044820152603960f91b60648201526084016109d6565b60008281526101fd602052604090206006015460ff1661175c5760405162461bcd60e51b81526004016109d690615957565b60008281526101fd602090815260409182902060020183905581518481529081018390527ffac3ef48e2aaf8bc35f09c41b55b707b89382eed55bf4b760550c685212918fb91015b60405180910390a15050565b6000818152606760205260408120546001600160a01b0316806108a25760405162461bcd60e51b8152602060048201526018602482015277115490cdcc8c4e881a5b9d985b1a59081d1bdad95b88125160421b60448201526064016109d6565b6101f8805461181e90615ae4565b80601f016020809104026020016040519081016040528092919081815260200182805461184a90615ae4565b80156118975780601f1061186c57610100808354040283529160200191611897565b820191906000526020600020905b81548152906001019060200180831161187a57829003601f168201915b505050505081565b60006001600160a01b0382166119095760405162461bcd60e51b815260206004820152602960248201527f4552433732313a2061646472657373207a65726f206973206e6f7420612076616044820152683634b21037bbb732b960b91b60648201526084016109d6565b506001600160a01b031660009081526068602052604090205490565b600080808080858133611937836117b0565b6001600160a01b03161490506000336101f55460408051633f43040760e01b815290516001600160a01b03938416939092169163e09c0c47918391633f43040791600480820192600092909190829003018186803b15801561199857600080fd5b505afa1580156119ac573d6000803e3d6000fd5b505050506040513d6000823e601f3d908101601f191682016040526119d49190810190615505565b6040518263ffffffff1660e01b81526004016119f09190615701565b60206040518083038186803b158015611a0857600080fd5b505afa158015611a1c573d6000803e3d6000fd5b505050506040513d601f19601f82011682018060405250810190611a40919061511f565b6001600160a01b03161490506000336101f554604080516305189e0d60e21b815290516001600160a01b03938416939092169163e09c0c47918391631462783491600480820192600092909190829003018186803b158015611aa157600080fd5b505afa158015611ab5573d6000803e3d6000fd5b505050506040513d6000823e601f3d908101601f19168201604052611add9190810190615505565b6040518263ffffffff1660e01b8152600401611af99190615701565b60206040518083038186803b158015611b1157600080fd5b505afa158015611b25573d6000803e3d6000fd5b505050506040513d601f19601f82011682018060405250810190611b49919061511f565b6001600160a01b03161490508280611b5e5750815b80611b665750805b611b825760405162461bcd60e51b81526004016109d690615844565b60008a81526101fd602052604090206006015460ff16611bb45760405162461bcd60e51b81526004016109d690615957565b505050600096875250506101fd60205250506040909220805460018201546003830154600484015460029094015492969195509350565b600080516020615ba5833981519152611c0381613194565b61116461346c565b611c13612e34565b611c1b612e7d565b6101f55460408051631106f62960e31b815290518692859285928892611d2a928692869286928a926001600160a01b039092169163e09c0c47918391638837b14891600480820192600092909190829003018186803b158015611c7d57600080fd5b505afa158015611c91573d6000803e3d6000fd5b505050506040513d6000823e601f3d908101601f19168201604052611cb99190810190615505565b6040518263ffffffff1660e01b8152600401611cd59190615701565b60206040518083038186803b158015611ced57600080fd5b505afa158015611d01573d6000803e3d6000fd5b505050506040513d601f19601f82011682018060405250810190611d25919061511f565b6134aa565b611d6f5760405162461bcd60e51b81526020600482015260166024820152751590ccce8814da59db985d1d5c99481a5b9d985b1a5960521b60448201526064016109d6565b60008511611dcb5760405162461bcd60e51b815260206004820152602360248201527f564331303a20416d6f756e74206d757374206265206d6f7265207468616e207a60448201526265726f60e81b60648201526084016109d6565b6001600160a01b038616611df15760405162461bcd60e51b81526004016109d6906158c7565b6101f55460408051634f8d232360e01b81529051611ff3926001600160a01b03169163e09c0c47918391634f8d2323916004808301926000929190829003018186803b158015611e4057600080fd5b505afa158015611e54573d6000803e3d6000fd5b505050506040513d6000823e601f3d908101601f19168201604052611e7c9190810190615505565b6040518263ffffffff1660e01b8152600401611e989190615701565b60206040518083038186803b158015611eb057600080fd5b505afa158015611ec4573d6000803e3d6000fd5b505050506040513d601f19601f82011682018060405250810190611ee8919061511f565b6101f554604080516324d13ae960e11b815290518a928a926001600160a01b039091169163e09c0c479183916349a275d291600480820192600092909190829003018186803b158015611f3a57600080fd5b505afa158015611f4e573d6000803e3d6000fd5b505050506040513d6000823e601f3d908101601f19168201604052611f769190810190615505565b6040518263ffffffff1660e01b8152600401611f929190615701565b60206040518083038186803b158015611faa57600080fd5b505afa158015611fbe573d6000803e3d6000fd5b505050506040513d601f19601f82011682018060405250810190611fe2919061511f565b6001600160a01b0316929190613754565b604080516001600160a01b0388168152602081018790527fb20b39f36c49328674ae1ed8071e35e66fb63cf258dc9efacefe70edc13a4a42910160405180910390a15050505061204460016101c355565b50505050565b612052612e34565b8160003361205f836117b0565b6001600160a01b03161490506000336101f55460408051633f43040760e01b815290516001600160a01b03938416939092169163e09c0c47918391633f43040791600480820192600092909190829003018186803b1580156120c057600080fd5b505afa1580156120d4573d6000803e3d6000fd5b505050506040513d6000823e601f3d908101601f191682016040526120fc9190810190615505565b6040518263ffffffff1660e01b81526004016121189190615701565b60206040518083038186803b15801561213057600080fd5b505afa158015612144573d6000803e3d6000fd5b505050506040513d601f19601f82011682018060405250810190612168919061511f565b6001600160a01b03161490506000336101f554604080516305189e0d60e21b815290516001600160a01b03938416939092169163e09c0c47918391631462783491600480820192600092909190829003018186803b1580156121c957600080fd5b505afa1580156121dd573d6000803e3d6000fd5b505050506040513d6000823e601f3d908101601f191682016040526122059190810190615505565b6040518263ffffffff1660e01b81526004016122219190615701565b60206040518083038186803b15801561223957600080fd5b505afa15801561224d573d6000803e3d6000fd5b505050506040513d601f19601f82011682018060405250810190612271919061511f565b6001600160a01b031614905082806122865750815b8061228e5750805b6122aa5760405162461bcd60e51b81526004016109d690615844565b6122b2612e34565b6122ba612e7d565b60006122c5876117b0565b905060006122d288612d09565b90508681101561232f5760405162461bcd60e51b815260206004820152602260248201527f5643373a20416d6f756e74206973206d6f7265207468616e20636c61696d61626044820152616c6560f01b60648201526084016109d6565b61233987896137bf565b6101f554604080516324d13ae960e11b815290516124479285928b926001600160a01b039092169163e09c0c479183916349a275d291600480820192600092909190829003018186803b15801561238f57600080fd5b505afa1580156123a3573d6000803e3d6000fd5b505050506040513d6000823e601f3d908101601f191682016040526123cb9190810190615505565b6040518263ffffffff1660e01b81526004016123e79190615701565b60206040518083038186803b1580156123ff57600080fd5b505afa158015612413573d6000803e3d6000fd5b505050506040513d601f19601f82011682018060405250810190612437919061511f565b6001600160a01b03169190613873565b604080518981526001600160a01b03841660208201529081018890527fe9df830f6b1fd30bb347af6bf00f831d76774a3bf89d00655034dd6ce674c58a9060600160405180910390a150506113a460016101c355565b600091825260fb602090815260408084206001600160a01b0393909316845291905290205460ff1690565b6060606680546108b790615ae4565b6101f5546040805163015c87cd60e71b81529051600092839233926001600160a01b039092169163e09c0c4791839163ae43e680916004808201928992909190829003018186803b15801561252b57600080fd5b505afa15801561253f573d6000803e3d6000fd5b505050506040513d6000823e601f3d908101601f191682016040526125679190810190615505565b6040518263ffffffff1660e01b81526004016125839190615701565b60206040518083038186803b15801561259b57600080fd5b505afa1580156125af573d6000803e3d6000fd5b505050506040513d601f19601f820116820180604052508101906125d3919061511f565b6001600160a01b0316146126395760405162461bcd60e51b815260206004820152602760248201527f5643353a204f6e6c7920496e766573746f7273204e465420616c6c6f776564206044820152661d1bc818d85b1b60ca1b60648201526084016109d6565b60008381526101fc60205260409020546126955760405162461bcd60e51b815260206004820152601e60248201527f5643363a206e6674546f6b656e496420646f6573206e6f74206578697374000060448201526064016109d6565b505060009081526101fc602090815260408083205483526101fd909152902080546001909101549091565b6110833383836138a3565b6126d53383612bc6565b6126f15760405162461bcd60e51b81526004016109d690615714565b61204484848484613972565b600054610100900460ff161580801561271d5750600054600160ff909116105b806127375750303b158015612737575060005460ff166001145b61279a5760405162461bcd60e51b815260206004820152602e60248201527f496e697469616c697a61626c653a20636f6e747261637420697320616c72656160448201526d191e481a5b9a5d1a585b1a5e995960921b60648201526084016109d6565b6000805460ff1916600117905580156127bd576000805461ff0019166101001790555b61283087878080601f01602080910402602001604051908101604052809392919081815260200183838082843760009201919091525050604080516020601f8b0181900481028201810190925289815292508991508890819084018382808284376000920191909152506139a592505050565b6128386139d6565b6128406139d6565b6128486139fd565b6101f98390556101f580546001600160a01b0319166001600160a01b03841690811790915560408051632530b14560e01b815290516000929163e09c0c47918391632530b1459160048281019288929190829003018186803b1580156128ad57600080fd5b505afa1580156128c1573d6000803e3d6000fd5b505050506040513d6000823e601f3d908101601f191682016040526128e99190810190615505565b6040518263ffffffff1660e01b81526004016129059190615701565b60206040518083038186803b15801561291d57600080fd5b505afa158015612931573d6000803e3d6000fd5b505050506040513d601f19601f82011682018060405250810190612955919061511f565b905061296260008261319e565b61297a600080516020615ba58339815191528261319e565b5080156129c1576000805461ff0019169055604051600181527f7f26b83ff96e1f2b6a682f133852f6798a09c465da95921460cefb38474024989060200160405180910390a15b50505050505050565b6129d2613a3c565b60006129dd81613194565b6101f580546001600160a01b0319166001600160a01b0384169081179091556040519081527fc533a624c353ec88e315b162298e52e2b02aa03d5fb5afdbf13445a26f1d10c7906020016117a4565b6060612a3782612af9565b6000612a4e60408051602081019091526000815290565b90506000815111612a6e5760405180602001604052806000815250612a99565b80612a7884613a86565b604051602001612a899291906155e1565b6040516020818303038152906040525b9392505050565b600082815260fb6020526040902060010154612abb81613194565b610a778383613224565b6001600160a01b03163b151590565b60006001600160e01b03198216637965db0b60e01b14806108a257506108a282613b31565b6000818152606760205260409020546001600160a01b03166111645760405162461bcd60e51b8152602060048201526018602482015277115490cdcc8c4e881a5b9d985b1a59081d1bdad95b88125160421b60448201526064016109d6565b600081815260696020526040902080546001600160a01b0319166001600160a01b0384169081179091558190612b8d826117b0565b6001600160a01b03167f8c5be1e5ebec7d5bd14f71427d1e84f3dd0314c0f7b2291e5b200ac8c7c3b92560405160405180910390a45050565b600080612bd2836117b0565b9050806001600160a01b0316846001600160a01b03161480612c1957506001600160a01b038082166000908152606a602090815260408083209388168352929052205460ff165b80610f465750836001600160a01b0316612c328461093a565b6001600160a01b031614949350505050565b60008181526101fd602052604081206006015460ff1615612c79575060008181526101fd602052604090208054600190910154145b80612cfe5760405162461bcd60e51b815260206004820152604960248201527f564331313a205472616e73666572206f6620746f6b656e2069732070726f686960448201527f626974656420756e74696c20696e766573746d656e7420697320746f74616c6c6064820152681e4818db185a5b595960ba1b608482015260a4016109d6565b612044848484613b56565b60008181526101fd602052604081206006015460ff16612d3b5760405162461bcd60e51b81526004016109d690615957565b60008281526101fd6020908152604091829020825160e0810184528154815260018201549281019290925260028101549282019290925260038201546060820152600482015460808201819052600583015460a083015260069092015460ff16151560c082015290421015612db35750600092915050565b60008160800151420390508160600151811015612e0a576040820151602083015160608401518451612de59085615a48565b612def9190615a28565b612df99190615a67565b612e039190615a67565b9250612e2d565b604082015160208301518351612e209190615a67565b612e2a9190615a67565b92505b5050919050565b61012d5460ff1615612e7b5760405162461bcd60e51b815260206004820152601060248201526f14185d5cd8589b194e881c185d5cd95960821b60448201526064016109d6565b565b60026101c3541415612ed15760405162461bcd60e51b815260206004820152601f60248201527f5265656e7472616e637947756172643a207265656e7472616e742063616c6c0060448201526064016109d6565b60026101c355565b6000838260000151836020015185612f62838383876101f560009054906101000a90046001600160a01b03166001600160a01b031663e09c0c476101f560009054906101000a90046001600160a01b03166001600160a01b0316638837b1486040518163ffffffff1660e01b815260040160006040518083038186803b158015611c7d57600080fd5b612fa75760405162461bcd60e51b81526020600482015260166024820152751590ccce8814da59db985d1d5c99481a5b9d985b1a5960521b60448201526064016109d6565b85516001600160a01b0316612fce5760405162461bcd60e51b81526004016109d6906158c7565b612fdb8660200151613cc7565b8551612fe690613e46565b9450856060015160001415612ffc574260608701525b8560800151866060018181516130129190615a10565b9052506101f95460408701516130289190615a48565b866040018181525050600042905060008060006001905060006040518060e001604052808c6020015181526020018581526020018481526020018c6040015181526020018c6060015181526020018681526020018315158152509050806101fd60008c8152602001908152602001600020600082015181600001556020820151816001015560408201518160020155606082015181600301556080820151816004015560a0820151816005015560c08201518160060160006101000a81548160ff0219169083151502179055509050507f9056606183d1c214f142d16edad7ce9518ee7ce63b251fafb0f74c1df8a56b8b818b60405161317c929190600061010082019050835182526020840151602083015260408401516040830152606084015160608301526080840151608083015260a084015160a083015260c0840151151560c08301528260e08301529392505050565b60405180910390a15050505050505050509392505050565b6111648133613e6e565b6131a8828261249d565b61108357600082815260fb602090815260408083206001600160a01b03851684529091529020805460ff191660011790556131e03390565b6001600160a01b0316816001600160a01b0316837f2f8788117e7eff1d82e926ec794901d17c78024a50270940304540a733656f0d60405160405180910390a45050565b61322e828261249d565b1561108357600082815260fb602090815260408083206001600160a01b0385168085529252808320805460ff1916905551339285917ff6391f5c32d9c69d2a47ea670b442974b53935d1edc7fd64eb21e047a839171b9190a45050565b600061108381613194565b7f4910fdfa16fed3260ed0e7147f7cc6da11a60208b5b9406d12a635614ffd91435460ff16156132c957610a7783613ec7565b826001600160a01b03166352d1902d6040518163ffffffff1660e01b815260040160206040518083038186803b15801561330257600080fd5b505afa925050508015613332575060408051601f3d908101601f1916820190925261332f918101906152f7565b60015b6133955760405162461bcd60e51b815260206004820152602e60248201527f45524331393637557067726164653a206e657720696d706c656d656e7461746960448201526d6f6e206973206e6f74205555505360901b60648201526084016109d6565b600080516020615b8583398151915281146134045760405162461bcd60e51b815260206004820152602960248201527f45524331393637557067726164653a20756e737570706f727465642070726f786044820152681a58589b195555525160ba1b60648201526084016109d6565b50610a77838383613f63565b613418613a3c565b61012d805460ff191690557f5db9ee0a495bf2e6ff9c91a7834c1ba4fdd244a5e8aa4e537bd38aeae4b073aa335b6040516001600160a01b03909116815260200160405180910390a1565b61116481613f88565b613474612e34565b61012d805460ff191660011790557f62e78cea01bee320cd4e420270b5ea74000d11b0c9f74754ebdbfc544b05a2586134463390565b600082516041146134fd5760405162461bcd60e51b815260206004820152601c60248201527f56433a20496e76616c6964207369676e6174757265206c656e6774680000000060448201526064016109d6565b428410158015613518575061351442610e10615a10565b8411155b6135645760405162461bcd60e51b815260206004820152601960248201527f56433a205369676e61747572652068617320657870697265640000000000000060448201526064016109d6565b6101f78360405161357591906155c5565b9081526040519081900360200190205460ff16156135d55760405162461bcd60e51b815260206004820152601a60248201527f56433a205369676e617475726520616c7265616479207573656400000000000060448201526064016109d6565b6040516bffffffffffffffffffffffff1933606090811b8216602084015288901b166034820152604881018690526068810185905246608882015260009060a8016040516020818303038152906040528051906020012090506000613667827f19457468657265756d205369676e6564204d6573736167653a0a3332000000006000908152601c91909152603c902090565b9050836001600160a01b031661367d828761402b565b6001600160a01b0316146136d35760405162461bcd60e51b815260206004820152601760248201527f56433a205369676e6174757265206e6f742076616c696400000000000000000060448201526064016109d6565b60016101f7866040516136e691906155c5565b908152604051908190036020018120805492151560ff19909316929092179091557f2bfa602885e092d5405a5a5c907a0394220be13f9ea0ae96c42be56cb819e0a89061373e9033908b908b908b9046908c906156b8565b60405180910390a1506001979650505050505050565b6040516001600160a01b03808516602483015283166044820152606481018290526120449085906323b872dd60e01b906084015b60408051601f198184030181529190526020810180516001600160e01b03166001600160e01b031990931692909217909152614047565b60008181526101fd602052604090206001810154815484916137e091615a67565b10156138475760405162461bcd60e51b815260206004820152603060248201527f5643383a20416d6f756e7420746f20626520636c61696d6564206973206d6f7260448201526f65207468616e2072656d61696e696e6760801b60648201526084016109d6565b60008281526101fd602052604081206001018054859290613869908490615a10565b9091555050505050565b6040516001600160a01b038316602482015260448101829052610a7790849063a9059cbb60e01b90606401613788565b816001600160a01b0316836001600160a01b031614156139055760405162461bcd60e51b815260206004820152601960248201527f4552433732313a20617070726f766520746f2063616c6c65720000000000000060448201526064016109d6565b6001600160a01b038381166000818152606a6020908152604080832094871680845294825291829020805460ff191686151590811790915591519182527f17307eab39ab6107e8899845ad3d59bd9653f200f220920489ca2b5937696c31910160405180910390a3505050565b61397d848484612c44565b6139898484848461411c565b6120445760405162461bcd60e51b81526004016109d690615761565b600054610100900460ff166139cc5760405162461bcd60e51b81526004016109d69061590c565b6110838282614226565b600054610100900460ff16612e7b5760405162461bcd60e51b81526004016109d69061590c565b600054610100900460ff16613a245760405162461bcd60e51b81526004016109d69061590c565b613a2c614274565b613a346139d6565b612e7b6139d6565b61012d5460ff16612e7b5760405162461bcd60e51b815260206004820152601460248201527314185d5cd8589b194e881b9bdd081c185d5cd95960621b60448201526064016109d6565b60606000613a93836142a3565b600101905060008167ffffffffffffffff811115613ac157634e487b7160e01b600052604160045260246000fd5b6040519080825280601f01601f191660200182016040528015613aeb576020820181803683370190505b5090508181016020015b600019016f181899199a1a9b1b9c1cb0b131b232b360811b600a86061a8153600a8504945084613b2457613b29565b613af5565b509392505050565b60006001600160e01b0319821663780e9d6360e01b14806108a257506108a28261437b565b826001600160a01b0316613b69826117b0565b6001600160a01b031614613b8f5760405162461bcd60e51b81526004016109d6906157b3565b6001600160a01b038216613bf15760405162461bcd60e51b8152602060048201526024808201527f4552433732313a207472616e7366657220746f20746865207a65726f206164646044820152637265737360e01b60648201526084016109d6565b613bfe83838360016143cb565b826001600160a01b0316613c11826117b0565b6001600160a01b031614613c375760405162461bcd60e51b81526004016109d6906157b3565b600081815260696020908152604080832080546001600160a01b03199081169091556001600160a01b0387811680865260688552838620805460001901905590871680865283862080546001019055868652606790945282852080549092168417909155905184937fddf252ad1be2c89b69c2b068fc378daa952ba7f163c4a11628f55a4df523b3ef91a4505050565b6101f55460408051634f8d232360e01b81529051613e10926001600160a01b03169163e09c0c47918391634f8d2323916004808301926000929190829003018186803b158015613d1657600080fd5b505afa158015613d2a573d6000803e3d6000fd5b505050506040513d6000823e601f3d908101601f19168201604052613d529190810190615505565b6040518263ffffffff1660e01b8152600401613d6e9190615701565b60206040518083038186803b158015613d8657600080fd5b505afa158015613d9a573d6000803e3d6000fd5b505050506040513d601f19601f82011682018060405250810190613dbe919061511f565b6101f554604080516324d13ae960e11b81529051309286926001600160a01b039091169163e09c0c479183916349a275d291600480820192600092909190829003018186803b158015611f3a57600080fd5b6040518181527fb7862b528381e938288a7bec72f75c9b61e8e1501b101b3cc5313082441713589060200160405180910390a150565b600080613e536101fa5490565b9050613e646101fa80546001019055565b6108a283826143df565b613e78828261249d565b61108357613e85816143f9565b613e9083602061440b565b604051602001613ea1929190615610565b60408051601f198184030181529082905262461bcd60e51b82526109d691600401615701565b6001600160a01b0381163b613f345760405162461bcd60e51b815260206004820152602d60248201527f455243313936373a206e657720696d706c656d656e746174696f6e206973206e60448201526c1bdd08184818dbdb9d1c9858dd609a1b60648201526084016109d6565b600080516020615b8583398151915280546001600160a01b0319166001600160a01b0392909216919091179055565b613f6c836145ed565b600082511180613f795750805b15610a7757612044838361462d565b6000613f93826117b0565b9050613fa38160008460016143cb565b613fac826117b0565b600083815260696020908152604080832080546001600160a01b03199081169091556001600160a01b0385168085526068845282852080546000190190558785526067909352818420805490911690555192935084927fddf252ad1be2c89b69c2b068fc378daa952ba7f163c4a11628f55a4df523b3ef908390a45050565b600080600061403a8585614652565b91509150613b2981614698565b600061409c826040518060400160405280602081526020017f5361666545524332303a206c6f772d6c6576656c2063616c6c206661696c6564815250856001600160a01b031661481e9092919063ffffffff16565b90508051600014806140bd5750808060200190518101906140bd91906152c3565b610a775760405162461bcd60e51b815260206004820152602a60248201527f5361666545524332303a204552433230206f7065726174696f6e20646964206e6044820152691bdd081cdd58d8d9595960b21b60648201526084016109d6565b60006001600160a01b0384163b1561421e57604051630a85bd0160e11b81526001600160a01b0385169063150b7a0290614160903390899088908890600401615685565b602060405180830381600087803b15801561417a57600080fd5b505af19250505080156141aa575060408051601f3d908101601f191682019092526141a79181019061534f565b60015b614204573d8080156141d8576040519150601f19603f3d011682016040523d82523d6000602084013e6141dd565b606091505b5080516141fc5760405162461bcd60e51b81526004016109d690615761565b805181602001fd5b6001600160e01b031916630a85bd0160e11b149050610f46565b506001610f46565b600054610100900460ff1661424d5760405162461bcd60e51b81526004016109d69061590c565b8151614260906065906020850190614fc3565b508051610a77906066906020840190614fc3565b600054610100900460ff1661429b5760405162461bcd60e51b81526004016109d69061590c565b612e7b61482d565b60008072184f03e93ff9f4daa797ed6e38ed64bf6a1f0160401b83106142e25772184f03e93ff9f4daa797ed6e38ed64bf6a1f0160401b830492506040015b6d04ee2d6d415b85acef8100000000831061430e576d04ee2d6d415b85acef8100000000830492506020015b662386f26fc10000831061432c57662386f26fc10000830492506010015b6305f5e1008310614344576305f5e100830492506008015b612710831061435857612710830492506004015b6064831061436a576064830492506002015b600a83106108a25760010192915050565b60006001600160e01b031982166380ac58cd60e01b14806143ac57506001600160e01b03198216635b5e139f60e01b145b806108a257506301ffc9a760e01b6001600160e01b03198316146108a2565b6143d3612e34565b61204484848484614861565b611083828260405180602001604052806000815250614995565b60606108a26001600160a01b03831660145b6060600061441a836002615a48565b614425906002615a10565b67ffffffffffffffff81111561444b57634e487b7160e01b600052604160045260246000fd5b6040519080825280601f01601f191660200182016040528015614475576020820181803683370190505b509050600360fc1b8160008151811061449e57634e487b7160e01b600052603260045260246000fd5b60200101906001600160f81b031916908160001a905350600f60fb1b816001815181106144db57634e487b7160e01b600052603260045260246000fd5b60200101906001600160f81b031916908160001a90535060006144ff846002615a48565b61450a906001615a10565b90505b600181111561459e576f181899199a1a9b1b9c1cb0b131b232b360811b85600f166010811061454c57634e487b7160e01b600052603260045260246000fd5b1a60f81b82828151811061457057634e487b7160e01b600052603260045260246000fd5b60200101906001600160f81b031916908160001a90535060049490941c9361459781615acd565b905061450d565b508315612a995760405162461bcd60e51b815260206004820181905260248201527f537472696e67733a20686578206c656e67746820696e73756666696369656e7460448201526064016109d6565b6145f681613ec7565b6040516001600160a01b038216907fbc7cd75a20ee27fd9adebab32041f755214dbc6bffa90cc0225b39da2e5c2d3b90600090a250565b6060612a998383604051806060016040528060278152602001615bc5602791396149c8565b6000808251604114156146895760208301516040840151606085015160001a61467d87828585614a36565b94509450505050614691565b506000905060025b9250929050565b60008160048111156146ba57634e487b7160e01b600052602160045260246000fd5b14156146c35750565b60018160048111156146e557634e487b7160e01b600052602160045260246000fd5b14156147335760405162461bcd60e51b815260206004820152601860248201527f45434453413a20696e76616c6964207369676e6174757265000000000000000060448201526064016109d6565b600281600481111561475557634e487b7160e01b600052602160045260246000fd5b14156147a35760405162461bcd60e51b815260206004820152601f60248201527f45434453413a20696e76616c6964207369676e6174757265206c656e6774680060448201526064016109d6565b60038160048111156147c557634e487b7160e01b600052602160045260246000fd5b14156111645760405162461bcd60e51b815260206004820152602260248201527f45434453413a20696e76616c6964207369676e6174757265202773272076616c604482015261756560f01b60648201526084016109d6565b6060610f468484600085614afa565b600054610100900460ff166148545760405162461bcd60e51b81526004016109d69061590c565b61012d805460ff19169055565b60018111156148d05760405162461bcd60e51b815260206004820152603560248201527f455243373231456e756d657261626c653a20636f6e7365637574697665207472604482015274185b9cd9995c9cc81b9bdd081cdd5c1c1bdc9d1959605a1b60648201526084016109d6565b816001600160a01b03851661492c5761492781609980546000838152609a60205260408120829055600182018355919091527f72a152ddfb8e864297c917af52ea6c1c68aead0fee1a62673fcc7e0c94979d000155565b61494f565b836001600160a01b0316856001600160a01b03161461494f5761494f8582614bd5565b6001600160a01b03841661496b5761496681614c72565b61498e565b846001600160a01b0316846001600160a01b03161461498e5761498e8482614d4b565b5050505050565b61499f8383614d8f565b6149ac600084848461411c565b610a775760405162461bcd60e51b81526004016109d690615761565b6060600080856001600160a01b0316856040516149e591906155c5565b600060405180830381855af49150503d8060008114614a20576040519150601f19603f3d011682016040523d82523d6000602084013e614a25565b606091505b5091509150610d0f86838387614f28565b6000807f7fffffffffffffffffffffffffffffff5d576e7357a4501ddfe92f46681b20a0831115614a6d5750600090506003614af1565b6040805160008082526020820180845289905260ff881692820192909252606081018690526080810185905260019060a0016020604051602081039080840390855afa158015614ac1573d6000803e3d6000fd5b5050604051601f1901519150506001600160a01b038116614aea57600060019250925050614af1565b9150600090505b94509492505050565b606082471015614b5b5760405162461bcd60e51b815260206004820152602660248201527f416464726573733a20696e73756666696369656e742062616c616e636520666f6044820152651c8818d85b1b60d21b60648201526084016109d6565b600080866001600160a01b03168587604051614b7791906155c5565b60006040518083038185875af1925050503d8060008114614bb4576040519150601f19603f3d011682016040523d82523d6000602084013e614bb9565b606091505b5091509150614bca87838387614f28565b979650505050505050565b60006001614be28461189f565b614bec9190615a67565b600083815260986020526040902054909150808214614c3f576001600160a01b03841660009081526097602090815260408083208584528252808320548484528184208190558352609890915290208190555b5060009182526098602090815260408084208490556001600160a01b039094168352609781528383209183525290812055565b609954600090614c8490600190615a67565b6000838152609a602052604081205460998054939450909284908110614cba57634e487b7160e01b600052603260045260246000fd5b906000526020600020015490508060998381548110614ce957634e487b7160e01b600052603260045260246000fd5b6000918252602080832090910192909255828152609a90915260408082208490558582528120556099805480614d2f57634e487b7160e01b600052603160045260246000fd5b6001900381819060005260206000200160009055905550505050565b6000614d568361189f565b6001600160a01b039093166000908152609760209081526040808320868452825280832085905593825260989052919091209190915550565b6001600160a01b038216614de55760405162461bcd60e51b815260206004820181905260248201527f4552433732313a206d696e7420746f20746865207a65726f206164647265737360448201526064016109d6565b6000818152606760205260409020546001600160a01b031615614e4a5760405162461bcd60e51b815260206004820152601c60248201527f4552433732313a20746f6b656e20616c7265616479206d696e7465640000000060448201526064016109d6565b614e586000838360016143cb565b6000818152606760205260409020546001600160a01b031615614ebd5760405162461bcd60e51b815260206004820152601c60248201527f4552433732313a20746f6b656e20616c7265616479206d696e7465640000000060448201526064016109d6565b6001600160a01b038216600081815260686020908152604080832080546001019055848352606790915280822080546001600160a01b0319168417905551839291907fddf252ad1be2c89b69c2b068fc378daa952ba7f163c4a11628f55a4df523b3ef908290a45050565b60608315614f94578251614f8d576001600160a01b0385163b614f8d5760405162461bcd60e51b815260206004820152601d60248201527f416464726573733a2063616c6c20746f206e6f6e2d636f6e747261637400000060448201526064016109d6565b5081610f46565b610f468383815115614fa95781518083602001fd5b8060405162461bcd60e51b81526004016109d69190615701565b828054614fcf90615ae4565b90600052602060002090601f016020900481019282614ff15760008555615037565b82601f1061500a57805160ff1916838001178555615037565b82800160010185558215615037579182015b8281111561503757825182559160200191906001019061501c565b50615043929150615047565b5090565b5b808211156150435760008155600101615048565b600082601f83011261506c578081fd5b813561507f61507a826159e8565b6159b7565b818152846020838601011115615093578283fd5b816020850160208301379081016020019190915292915050565b60008083601f8401126150be578182fd5b50813567ffffffffffffffff8111156150d5578182fd5b60208301915083602082850101111561469157600080fd5b803560ff811681146150fe57600080fd5b919050565b600060208284031215615114578081fd5b8135612a9981615b4b565b600060208284031215615130578081fd5b8151612a9981615b4b565b6000806040838503121561514d578081fd5b823561515881615b4b565b9150602083013561516881615b4b565b809150509250929050565b600080600060608486031215615187578081fd5b833561519281615b4b565b925060208401356151a281615b4b565b929592945050506040919091013590565b600080600080608085870312156151c8578081fd5b84356151d381615b4b565b935060208501356151e381615b4b565b925060408501359150606085013567ffffffffffffffff811115615205578182fd5b6152118782880161505c565b91505092959194509250565b6000806040838503121561522f578182fd5b823561523a81615b4b565b9150602083013561516881615b60565b6000806040838503121561525c578182fd5b823561526781615b4b565b9150602083013567ffffffffffffffff811115615282578182fd5b61528e8582860161505c565b9150509250929050565b600080604083850312156152aa578081fd5b82356152b581615b4b565b946020939093013593505050565b6000602082840312156152d4578081fd5b8151612a9981615b60565b6000602082840312156152f0578081fd5b5035919050565b600060208284031215615308578081fd5b5051919050565b60008060408385031215615321578182fd5b82359150602083013561516881615b4b565b600060208284031215615344578081fd5b8135612a9981615b6e565b600060208284031215615360578081fd5b8151612a9981615b6e565b60008060008060808587031215615380578182fd5b843567ffffffffffffffff811115615396578283fd5b6153a28782880161505c565b9450506020850135925060408501356153ba81615b4b565b9396929550929360600135925050565b6000806000808486036101008112156153e1578283fd5b853567ffffffffffffffff8111156153f7578384fd5b6154038882890161505c565b9550506020860135935060a0603f198201121561541e578283fd5b5061542761598e565b604086013561543581615b4b565b80825250606086013560208201526080860135604082015260a0860135606082015260c086013560808201528092505061547160e086016150ed565b905092959194509250565b60008060008060008060808789031215615494578384fd5b863567ffffffffffffffff808211156154ab578586fd5b6154b78a838b016150ad565b909850965060208901359150808211156154cf578586fd5b506154dc89828a016150ad565b9095509350506040870135915060608701356154f781615b4b565b809150509295509295509295565b600060208284031215615516578081fd5b815167ffffffffffffffff81111561552c578182fd5b8201601f8101841361553c578182fd5b805161554a61507a826159e8565b81815285602083850101111561555e578384fd5b61556f826020830160208601615aa1565b95945050505050565b6000806040838503121561558a578182fd5b50508035926020909101359150565b600081518084526155b1816020860160208601615aa1565b601f01601f19169290920160200192915050565b600082516155d7818460208701615aa1565b9190910192915050565b600083516155f3818460208801615aa1565b835190830190615607818360208801615aa1565b01949350505050565b7f416363657373436f6e74726f6c3a206163636f756e7420000000000000000000815260008351615648816017850160208801615aa1565b7001034b99036b4b9b9b4b733903937b6329607d1b6017918401918201528351615679816028840160208801615aa1565b01602801949350505050565b6001600160a01b0385811682528416602082015260408101839052608060608201819052600090610d0f90830184615599565b600060018060a01b03808916835280881660208401525085604083015284606083015283608083015260c060a08301526156f560c0830184615599565b98975050505050505050565b602081526000612a996020830184615599565b6020808252602d908201527f4552433732313a2063616c6c6572206973206e6f7420746f6b656e206f776e6560408201526c1c881bdc88185c1c1c9bdd9959609a1b606082015260800190565b60208082526032908201527f4552433732313a207472616e7366657220746f206e6f6e20455243373231526560408201527131b2b4bb32b91034b6b83632b6b2b73a32b960711b606082015260800190565b60208082526025908201527f4552433732313a207472616e736665722066726f6d20696e636f72726563742060408201526437bbb732b960d91b606082015260800190565b6020808252602c908201527f46756e6374696f6e206d7573742062652063616c6c6564207468726f7567682060408201526b19195b1959d85d1958d85b1b60a21b606082015260800190565b6020808252601a908201527f5643313a204f6e6c7920696e766573746f72206f722052616e64000000000000604082015260600190565b6020808252602c908201527f46756e6374696f6e206d7573742062652063616c6c6564207468726f7567682060408201526b6163746976652070726f787960a01b606082015260800190565b60208082526025908201527f5643393a20526563697069656e742063616e6e6f74206265207a65726f206164604082015264647265737360d81b606082015260800190565b6020808252602b908201527f496e697469616c697a61626c653a20636f6e7472616374206973206e6f74206960408201526a6e697469616c697a696e6760a81b606082015260800190565b6020808252601b908201527f5643343a20746f6b656e496420646f6573206e6f742065786973740000000000604082015260600190565b60405160a0810167ffffffffffffffff811182821017156159b1576159b1615b35565b60405290565b604051601f8201601f1916810167ffffffffffffffff811182821017156159e0576159e0615b35565b604052919050565b600067ffffffffffffffff821115615a0257615a02615b35565b50601f01601f191660200190565b60008219821115615a2357615a23615b1f565b500190565b600082615a4357634e487b7160e01b81526012600452602481fd5b500490565b6000816000190483118215151615615a6257615a62615b1f565b500290565b600082821015615a7957615a79615b1f565b500390565b600060ff821660ff841680821015615a9857615a98615b1f565b90039392505050565b60005b83811015615abc578181015183820152602001615aa4565b838111156120445750506000910152565b600081615adc57615adc615b1f565b506000190190565b600181811c90821680615af857607f821691505b60208210811415615b1957634e487b7160e01b600052602260045260246000fd5b50919050565b634e487b7160e01b600052601160045260246000fd5b634e487b7160e01b600052604160045260246000fd5b6001600160a01b038116811461116457600080fd5b801515811461116457600080fd5b6001600160e01b03198116811461116457600080fdfe360894a13ba1a3210667c828492db98dca3e2076cc3735a920a3ca505d382bbc65d7a28e3265b37a6474929f336521b332c1681b933f6cb9f3376673440d862a416464726573733a206c6f772d6c6576656c2064656c65676174652063616c6c206661696c6564a26469706673582212201d1aba914ae26cc175b22783a4f94004591123e5a767dd10ce6ccbdefb255bd264736f6c63430008040033",
  "devdoc": {
    "kind": "dev",
    "methods": {
      "approve(address,uint256)": {
        "details": "See {IERC721-approve}."
      },
      "balanceOf(address)": {
        "details": "See {IERC721-balanceOf}."
      },
      "burn(uint256)": {
        "details": "Returns collateral tokens to the caller",
        "params": {
          "tokenId": "to be burned"
        }
      },
      "claimTokens(uint256,uint256)": {
        "details": "emits ClaimedAmount() and only accessible by the investor's wallet, the backend address and safety module contract",
        "params": {
          "amount": "is the amount of vested tokens to claim in the process",
          "tokenId": "is the id of investment to submit the claim on"
        }
      },
      "constructor": {
        "custom:oz-upgrades-unsafe-allow": "constructor"
      },
      "distributeTokens(bytes,uint256,address,uint256)": {
        "details": "emits InvestmentTransferred() and only accessible with signature from Rand",
        "params": {
          "recipient": "is the address to whom the token should be transferred to",
          "rndTokenAmount": "is the amount of the total investment"
        }
      },
      "getApproved(uint256)": {
        "details": "See {IERC721-getApproved}."
      },
      "getClaimableTokens(uint256)": {
        "details": "only accessible by the investor's wallet, the backend address and safety module contract",
        "params": {
          "tokenId": "the tokenId for which to query the claimable amount"
        },
        "returns": {
          "_0": "amounts of tokens an investor is eligible to claim (already vested and unclaimed amount)"
        }
      },
      "getInvestmentInfo(uint256)": {
        "details": "only accessible by the investor's wallet, the backend address and safety module contract",
        "params": {
          "tokenId": "is the id of the token for which to get info"
        },
        "returns": {
          "rndClaimedAmount": "amounts of tokens an investor already claimed and received",
          "rndStakedAmount": "the amount of tokens an investor is staking",
          "rndTokenAmount": "is the amount of the total investment",
          "vestingPeriod": "number of periods the investment is vested for",
          "vestingStartTime": "the timestamp when the vesting starts to kick-in"
        }
      },
      "getInvestmentInfoForNFT(uint256)": {
        "details": "only accessible by the investors NFT contract",
        "params": {
          "nftTokenId": "is the id of the token for which to get info"
        },
        "returns": {
          "rndClaimedAmount": "amounts of tokens an investor already claimed and received",
          "rndTokenAmount": "is the amount of the total investment"
        }
      },
      "getRoleAdmin(bytes32)": {
        "details": "Returns the admin role that controls `role`. See {grantRole} and {revokeRole}. To change a role's admin, use {_setRoleAdmin}."
      },
      "getTokenIdOfNFT(uint256)": {
        "params": {
          "tokenIdNFT": "tokenId of the early investor NFT"
        },
        "returns": {
          "tokenId": "of the investment"
        }
      },
      "grantRole(bytes32,address)": {
        "details": "Grants `role` to `account`. If `account` had not been already granted `role`, emits a {RoleGranted} event. Requirements: - the caller must have ``role``'s admin role. May emit a {RoleGranted} event."
      },
      "hasRole(bytes32,address)": {
        "details": "Returns `true` if `account` has been granted `role`."
      },
      "initialize(string,string,uint256,address)": {
        "details": "for upgradability its necessary to use initialize instead of simple constructor",
        "params": {
          "_erc721_name": "Name of the token like `Rand Vesting Controller ERC721`",
          "_erc721_symbol": "Short symbol like `vRND`",
          "_periodSeconds": "Amount of seconds to set 1 period to like 60*60*24 for 1 day",
          "_registry": "is the address of address registry"
        }
      },
      "isApprovedForAll(address,address)": {
        "details": "See {IERC721-isApprovedForAll}."
      },
      "mintNewInvestment(bytes,uint256,(address,uint256,uint256,uint256,uint256),uint8)": {
        "details": "emits NewInvestmentTokenMinted() and only accessible with signature from Rand",
        "params": {
          "nftLevel": "is the level of the NFT to be minted",
          "params": "is the struct with all the parameters for the investment",
          "signature": "is the signature which is used to verify the minting",
          "signatureTimestamp": "is the expiration timestamp of the signature"
        },
        "returns": {
          "tokenId": "the id of the minted token on VC"
        }
      },
      "modifyStakedAmount(uint256,uint256)": {
        "details": "emits StakedAmountModifier() and only accessible by the Safety Module contract via SM_ROLE",
        "params": {
          "amount": "the amount of tokens to increase staked amount",
          "tokenId": "the tokenId for which to increase staked amount"
        }
      },
      "name()": {
        "details": "See {IERC721Metadata-name}."
      },
      "ownerOf(uint256)": {
        "details": "See {IERC721-ownerOf}."
      },
      "paused()": {
        "details": "Returns true if the contract is paused, and false otherwise."
      },
      "proxiableUUID()": {
        "details": "Implementation of the ERC1822 {proxiableUUID} function. This returns the storage slot used by the implementation. It is used to validate the implementation's compatibility when performing an upgrade. IMPORTANT: A proxy pointing at a proxiable contract should not be considered proxiable itself, because this risks bricking a proxy that upgrades to it, by delegating to itself until out of gas. Thus it is critical that this function revert if invoked through a proxy. This is guaranteed by the `notDelegated` modifier."
      },
      "renounceRole(bytes32,address)": {
        "details": "Revokes `role` from the calling account. Roles are often managed via {grantRole} and {revokeRole}: this function's purpose is to provide a mechanism for accounts to lose their privileges if they are compromised (such as when a trusted device is misplaced). If the calling account had been revoked `role`, emits a {RoleRevoked} event. Requirements: - the caller must be `account`. May emit a {RoleRevoked} event."
      },
      "revokeRole(bytes32,address)": {
        "details": "Revokes `role` from `account`. If `account` had been granted `role`, emits a {RoleRevoked} event. Requirements: - the caller must have ``role``'s admin role. May emit a {RoleRevoked} event."
      },
      "safeTransferFrom(address,address,uint256)": {
        "details": "See {IERC721-safeTransferFrom}."
      },
      "safeTransferFrom(address,address,uint256,bytes)": {
        "details": "See {IERC721-safeTransferFrom}."
      },
      "setApprovalForAll(address,bool)": {
        "details": "See {IERC721-setApprovalForAll}."
      },
      "symbol()": {
        "details": "See {IERC721Metadata-symbol}."
      },
      "tokenByIndex(uint256)": {
        "details": "See {IERC721Enumerable-tokenByIndex}."
      },
      "tokenOfOwnerByIndex(address,uint256)": {
        "details": "See {IERC721Enumerable-tokenOfOwnerByIndex}."
      },
      "tokenURI(uint256)": {
        "details": "See {IERC721Metadata-tokenURI}."
      },
      "totalSupply()": {
        "details": "See {IERC721Enumerable-totalSupply}."
      },
      "transferFrom(address,address,uint256)": {
        "details": "See {IERC721-transferFrom}."
      },
      "updateRegistryAddress(address)": {
        "details": "emits RegistryAddressUpdated() and only accessible by MultiSig",
        "params": {
          "newAddress": "where the new Safety Module contract is located"
        }
      },
      "upgradeTo(address)": {
        "custom:oz-upgrades-unsafe-allow-reachable": "delegatecall",
        "details": "Upgrade the implementation of the proxy to `newImplementation`. Calls {_authorizeUpgrade}. Emits an {Upgraded} event."
      },
      "upgradeToAndCall(address,bytes)": {
        "custom:oz-upgrades-unsafe-allow-reachable": "delegatecall",
        "details": "Upgrade the implementation of the proxy to `newImplementation`, and subsequently execute the function call encoded in `data`. Calls {_authorizeUpgrade}. Emits an {Upgraded} event."
      }
    },
    "version": 1
  },
  "userdoc": {
    "kind": "user",
    "methods": {
      "burn(uint256)": {
        "notice": "Burn vesting token by admin (avaiable only for DEFAULT_ADMIN_ROLE)"
      },
      "claimTokens(uint256,uint256)": {
        "notice": "Claim function to withdraw vested tokens"
      },
      "distributeTokens(bytes,uint256,address,uint256)": {
        "notice": "Transfers RND Tokens to non-vesting investor, its used to distribute public sale tokens by backend"
      },
      "getClaimableTokens(uint256)": {
        "notice": "View function to get amount of claimable tokens from vested investment token"
      },
      "getInvestmentInfo(uint256)": {
        "notice": "View function to get information about a vested investment token"
      },
      "getInvestmentInfoForNFT(uint256)": {
        "notice": "View function to get information about a vested investment token exclusively for the Investors NFT contract"
      },
      "getTokenIdOfNFT(uint256)": {
        "notice": "Simple utility function to get investment tokenId based on an NFT tokenId"
      },
      "initialize(string,string,uint256,address)": {
        "notice": "Initializer allow proxy scheme"
      },
      "mintNewInvestment(bytes,uint256,(address,uint256,uint256,uint256,uint256),uint8)": {
        "notice": "Mints a token and associates an investment to it and sets tokenURI and also mints an investors NFT"
      },
      "modifyStakedAmount(uint256,uint256)": {
        "notice": "Function for Safety Module to increase the staked RND amount"
      },
      "updateRegistryAddress(address)": {
        "notice": "Function to let Rand to update the address of the Safety Module"
      }
    },
    "notice": "VC1: No access role for this address VC2: Not accessible by msg.sender VC3: Signature invalid VC4: tokenId does not exist VC5: Only Investors NFT allowed to call VC6: nftTokenId does not exist VC7: Amount is more than claimable VC8: Amount to be claimed is more than remaining VC9: Recipient cannot be zero address VC10: Amount must be more than zero VC11: Transfer of token is prohibited until investment is totally claimed",
    "version": 1
  },
  "storageLayout": {
    "storage": [
      {
        "astId": 780,
        "contract": "contracts/ecosystem/VestingControllerERC721.sol:VestingControllerERC721",
        "label": "_initialized",
        "offset": 0,
        "slot": "0",
        "type": "t_uint8"
      },
      {
        "astId": 783,
        "contract": "contracts/ecosystem/VestingControllerERC721.sol:VestingControllerERC721",
        "label": "_initializing",
        "offset": 1,
        "slot": "0",
        "type": "t_bool"
      },
      {
        "astId": 4419,
        "contract": "contracts/ecosystem/VestingControllerERC721.sol:VestingControllerERC721",
        "label": "__gap",
        "offset": 0,
        "slot": "1",
        "type": "t_array(t_uint256)50_storage"
      },
      {
        "astId": 5242,
        "contract": "contracts/ecosystem/VestingControllerERC721.sol:VestingControllerERC721",
        "label": "__gap",
        "offset": 0,
        "slot": "51",
        "type": "t_array(t_uint256)50_storage"
      },
      {
        "astId": 2509,
        "contract": "contracts/ecosystem/VestingControllerERC721.sol:VestingControllerERC721",
        "label": "_name",
        "offset": 0,
        "slot": "101",
        "type": "t_string_storage"
      },
      {
        "astId": 2511,
        "contract": "contracts/ecosystem/VestingControllerERC721.sol:VestingControllerERC721",
        "label": "_symbol",
        "offset": 0,
        "slot": "102",
        "type": "t_string_storage"
      },
      {
        "astId": 2515,
        "contract": "contracts/ecosystem/VestingControllerERC721.sol:VestingControllerERC721",
        "label": "_owners",
        "offset": 0,
        "slot": "103",
        "type": "t_mapping(t_uint256,t_address)"
      },
      {
        "astId": 2519,
        "contract": "contracts/ecosystem/VestingControllerERC721.sol:VestingControllerERC721",
        "label": "_balances",
        "offset": 0,
        "slot": "104",
        "type": "t_mapping(t_address,t_uint256)"
      },
      {
        "astId": 2523,
        "contract": "contracts/ecosystem/VestingControllerERC721.sol:VestingControllerERC721",
        "label": "_tokenApprovals",
        "offset": 0,
        "slot": "105",
        "type": "t_mapping(t_uint256,t_address)"
      },
      {
        "astId": 2529,
        "contract": "contracts/ecosystem/VestingControllerERC721.sol:VestingControllerERC721",
        "label": "_operatorApprovals",
        "offset": 0,
        "slot": "106",
        "type": "t_mapping(t_address,t_mapping(t_address,t_bool))"
      },
      {
        "astId": 3431,
        "contract": "contracts/ecosystem/VestingControllerERC721.sol:VestingControllerERC721",
        "label": "__gap",
        "offset": 0,
        "slot": "107",
        "type": "t_array(t_uint256)44_storage"
      },
      {
        "astId": 3646,
        "contract": "contracts/ecosystem/VestingControllerERC721.sol:VestingControllerERC721",
        "label": "_ownedTokens",
        "offset": 0,
        "slot": "151",
        "type": "t_mapping(t_address,t_mapping(t_uint256,t_uint256))"
      },
      {
        "astId": 3650,
        "contract": "contracts/ecosystem/VestingControllerERC721.sol:VestingControllerERC721",
        "label": "_ownedTokensIndex",
        "offset": 0,
        "slot": "152",
        "type": "t_mapping(t_uint256,t_uint256)"
      },
      {
        "astId": 3653,
        "contract": "contracts/ecosystem/VestingControllerERC721.sol:VestingControllerERC721",
        "label": "_allTokens",
        "offset": 0,
        "slot": "153",
        "type": "t_array(t_uint256)dyn_storage"
      },
      {
        "astId": 3657,
        "contract": "contracts/ecosystem/VestingControllerERC721.sol:VestingControllerERC721",
        "label": "_allTokensIndex",
        "offset": 0,
        "slot": "154",
        "type": "t_mapping(t_uint256,t_uint256)"
      },
      {
        "astId": 3989,
        "contract": "contracts/ecosystem/VestingControllerERC721.sol:VestingControllerERC721",
        "label": "__gap",
        "offset": 0,
        "slot": "155",
        "type": "t_array(t_uint256)46_storage"
      },
      {
        "astId": 3615,
        "contract": "contracts/ecosystem/VestingControllerERC721.sol:VestingControllerERC721",
        "label": "__gap",
        "offset": 0,
        "slot": "201",
        "type": "t_array(t_uint256)50_storage"
      },
      {
        "astId": 39,
        "contract": "contracts/ecosystem/VestingControllerERC721.sol:VestingControllerERC721",
        "label": "_roles",
        "offset": 0,
        "slot": "251",
        "type": "t_mapping(t_bytes32,t_struct(RoleData)34_storage)"
      },
      {
        "astId": 334,
        "contract": "contracts/ecosystem/VestingControllerERC721.sol:VestingControllerERC721",
        "label": "__gap",
        "offset": 0,
        "slot": "252",
        "type": "t_array(t_uint256)49_storage"
      },
      {
        "astId": 1099,
        "contract": "contracts/ecosystem/VestingControllerERC721.sol:VestingControllerERC721",
        "label": "_paused",
        "offset": 0,
        "slot": "301",
        "type": "t_bool"
      },
      {
        "astId": 1204,
        "contract": "contracts/ecosystem/VestingControllerERC721.sol:VestingControllerERC721",
        "label": "__gap",
        "offset": 0,
        "slot": "302",
        "type": "t_array(t_uint256)49_storage"
      },
      {
        "astId": 762,
        "contract": "contracts/ecosystem/VestingControllerERC721.sol:VestingControllerERC721",
        "label": "__gap",
        "offset": 0,
        "slot": "351",
        "type": "t_array(t_uint256)50_storage"
      },
      {
        "astId": 1077,
        "contract": "contracts/ecosystem/VestingControllerERC721.sol:VestingControllerERC721",
        "label": "__gap",
        "offset": 0,
        "slot": "401",
        "type": "t_array(t_uint256)50_storage"
      },
      {
        "astId": 1219,
        "contract": "contracts/ecosystem/VestingControllerERC721.sol:VestingControllerERC721",
        "label": "_status",
        "offset": 0,
        "slot": "451",
        "type": "t_uint256"
      },
      {
        "astId": 1288,
        "contract": "contracts/ecosystem/VestingControllerERC721.sol:VestingControllerERC721",
        "label": "__gap",
        "offset": 0,
        "slot": "452",
        "type": "t_array(t_uint256)49_storage"
      },
      {
        "astId": 6660,
        "contract": "contracts/ecosystem/VestingControllerERC721.sol:VestingControllerERC721",
        "label": "REGISTRY",
        "offset": 0,
        "slot": "501",
        "type": "t_contract(IAddressRegistry)8832"
      },
      {
        "astId": 7402,
        "contract": "contracts/ecosystem/VestingControllerERC721.sol:VestingControllerERC721",
        "label": "systemAddress",
        "offset": 0,
        "slot": "502",
        "type": "t_address"
      },
      {
        "astId": 7406,
        "contract": "contracts/ecosystem/VestingControllerERC721.sol:VestingControllerERC721",
        "label": "_usedSignatures",
        "offset": 0,
        "slot": "503",
        "type": "t_mapping(t_bytes_memory_ptr,t_bool)"
      },
      {
        "astId": 7597,
        "contract": "contracts/ecosystem/VestingControllerERC721.sol:VestingControllerERC721",
        "label": "baseURI",
        "offset": 0,
        "slot": "504",
        "type": "t_string_storage"
      },
      {
        "astId": 7599,
        "contract": "contracts/ecosystem/VestingControllerERC721.sol:VestingControllerERC721",
        "label": "PERIOD_SECONDS",
        "offset": 0,
        "slot": "505",
        "type": "t_uint256"
      },
      {
        "astId": 7602,
        "contract": "contracts/ecosystem/VestingControllerERC721.sol:VestingControllerERC721",
        "label": "_tokenIdCounter",
        "offset": 0,
        "slot": "506",
        "type": "t_struct(Counter)4426_storage"
      },
      {
        "astId": 7606,
        "contract": "contracts/ecosystem/VestingControllerERC721.sol:VestingControllerERC721",
        "label": "_verifiedSignatures",
        "offset": 0,
        "slot": "507",
        "type": "t_mapping(t_bytes32,t_bool)"
      },
      {
        "astId": 7610,
        "contract": "contracts/ecosystem/VestingControllerERC721.sol:VestingControllerERC721",
        "label": "_nftTokenToVCToken",
        "offset": 0,
        "slot": "508",
        "type": "t_mapping(t_uint256,t_uint256)"
      },
      {
        "astId": 7641,
        "contract": "contracts/ecosystem/VestingControllerERC721.sol:VestingControllerERC721",
        "label": "vestingToken",
        "offset": 0,
        "slot": "509",
        "type": "t_mapping(t_uint256,t_struct(VestingInvestment)7636_storage)"
      }
    ],
    "types": {
      "t_address": {
        "encoding": "inplace",
        "label": "address",
        "numberOfBytes": "20"
      },
      "t_array(t_uint256)44_storage": {
        "base": "t_uint256",
        "encoding": "inplace",
        "label": "uint256[44]",
        "numberOfBytes": "1408"
      },
      "t_array(t_uint256)46_storage": {
        "base": "t_uint256",
        "encoding": "inplace",
        "label": "uint256[46]",
        "numberOfBytes": "1472"
      },
      "t_array(t_uint256)49_storage": {
        "base": "t_uint256",
        "encoding": "inplace",
        "label": "uint256[49]",
        "numberOfBytes": "1568"
      },
      "t_array(t_uint256)50_storage": {
        "base": "t_uint256",
        "encoding": "inplace",
        "label": "uint256[50]",
        "numberOfBytes": "1600"
      },
      "t_array(t_uint256)dyn_storage": {
        "base": "t_uint256",
        "encoding": "dynamic_array",
        "label": "uint256[]",
        "numberOfBytes": "32"
      },
      "t_bool": {
        "encoding": "inplace",
        "label": "bool",
        "numberOfBytes": "1"
      },
      "t_bytes32": {
        "encoding": "inplace",
        "label": "bytes32",
        "numberOfBytes": "32"
      },
      "t_bytes_memory_ptr": {
        "encoding": "bytes",
        "label": "bytes",
        "numberOfBytes": "32"
      },
      "t_contract(IAddressRegistry)8832": {
        "encoding": "inplace",
        "label": "contract IAddressRegistry",
        "numberOfBytes": "20"
      },
      "t_mapping(t_address,t_bool)": {
        "encoding": "mapping",
        "key": "t_address",
        "label": "mapping(address => bool)",
        "numberOfBytes": "32",
        "value": "t_bool"
      },
      "t_mapping(t_address,t_mapping(t_address,t_bool))": {
        "encoding": "mapping",
        "key": "t_address",
        "label": "mapping(address => mapping(address => bool))",
        "numberOfBytes": "32",
        "value": "t_mapping(t_address,t_bool)"
      },
      "t_mapping(t_address,t_mapping(t_uint256,t_uint256))": {
        "encoding": "mapping",
        "key": "t_address",
        "label": "mapping(address => mapping(uint256 => uint256))",
        "numberOfBytes": "32",
        "value": "t_mapping(t_uint256,t_uint256)"
      },
      "t_mapping(t_address,t_uint256)": {
        "encoding": "mapping",
        "key": "t_address",
        "label": "mapping(address => uint256)",
        "numberOfBytes": "32",
        "value": "t_uint256"
      },
      "t_mapping(t_bytes32,t_bool)": {
        "encoding": "mapping",
        "key": "t_bytes32",
        "label": "mapping(bytes32 => bool)",
        "numberOfBytes": "32",
        "value": "t_bool"
      },
      "t_mapping(t_bytes32,t_struct(RoleData)34_storage)": {
        "encoding": "mapping",
        "key": "t_bytes32",
        "label": "mapping(bytes32 => struct AccessControlUpgradeable.RoleData)",
        "numberOfBytes": "32",
        "value": "t_struct(RoleData)34_storage"
      },
      "t_mapping(t_bytes_memory_ptr,t_bool)": {
        "encoding": "mapping",
        "key": "t_bytes_memory_ptr",
        "label": "mapping(bytes => bool)",
        "numberOfBytes": "32",
        "value": "t_bool"
      },
      "t_mapping(t_uint256,t_address)": {
        "encoding": "mapping",
        "key": "t_uint256",
        "label": "mapping(uint256 => address)",
        "numberOfBytes": "32",
        "value": "t_address"
      },
      "t_mapping(t_uint256,t_struct(VestingInvestment)7636_storage)": {
        "encoding": "mapping",
        "key": "t_uint256",
        "label": "mapping(uint256 => struct VestingControllerERC721.VestingInvestment)",
        "numberOfBytes": "32",
        "value": "t_struct(VestingInvestment)7636_storage"
      },
      "t_mapping(t_uint256,t_uint256)": {
        "encoding": "mapping",
        "key": "t_uint256",
        "label": "mapping(uint256 => uint256)",
        "numberOfBytes": "32",
        "value": "t_uint256"
      },
      "t_string_storage": {
        "encoding": "bytes",
        "label": "string",
        "numberOfBytes": "32"
      },
      "t_struct(Counter)4426_storage": {
        "encoding": "inplace",
        "label": "struct CountersUpgradeable.Counter",
        "members": [
          {
            "astId": 4425,
            "contract": "contracts/ecosystem/VestingControllerERC721.sol:VestingControllerERC721",
            "label": "_value",
            "offset": 0,
            "slot": "0",
            "type": "t_uint256"
          }
        ],
        "numberOfBytes": "32"
      },
      "t_struct(RoleData)34_storage": {
        "encoding": "inplace",
        "label": "struct AccessControlUpgradeable.RoleData",
        "members": [
          {
            "astId": 31,
            "contract": "contracts/ecosystem/VestingControllerERC721.sol:VestingControllerERC721",
            "label": "members",
            "offset": 0,
            "slot": "0",
            "type": "t_mapping(t_address,t_bool)"
          },
          {
            "astId": 33,
            "contract": "contracts/ecosystem/VestingControllerERC721.sol:VestingControllerERC721",
            "label": "adminRole",
            "offset": 0,
            "slot": "1",
            "type": "t_bytes32"
          }
        ],
        "numberOfBytes": "64"
      },
      "t_struct(VestingInvestment)7636_storage": {
        "encoding": "inplace",
        "label": "struct VestingControllerERC721.VestingInvestment",
        "members": [
          {
            "astId": 7623,
            "contract": "contracts/ecosystem/VestingControllerERC721.sol:VestingControllerERC721",
            "label": "rndTokenAmount",
            "offset": 0,
            "slot": "0",
            "type": "t_uint256"
          },
          {
            "astId": 7625,
            "contract": "contracts/ecosystem/VestingControllerERC721.sol:VestingControllerERC721",
            "label": "rndClaimedAmount",
            "offset": 0,
            "slot": "1",
            "type": "t_uint256"
          },
          {
            "astId": 7627,
            "contract": "contracts/ecosystem/VestingControllerERC721.sol:VestingControllerERC721",
            "label": "rndStakedAmount",
            "offset": 0,
            "slot": "2",
            "type": "t_uint256"
          },
          {
            "astId": 7629,
            "contract": "contracts/ecosystem/VestingControllerERC721.sol:VestingControllerERC721",
            "label": "vestingPeriod",
            "offset": 0,
            "slot": "3",
            "type": "t_uint256"
          },
          {
            "astId": 7631,
            "contract": "contracts/ecosystem/VestingControllerERC721.sol:VestingControllerERC721",
            "label": "vestingStartTime",
            "offset": 0,
            "slot": "4",
            "type": "t_uint256"
          },
          {
            "astId": 7633,
            "contract": "contracts/ecosystem/VestingControllerERC721.sol:VestingControllerERC721",
            "label": "mintTimestamp",
            "offset": 0,
            "slot": "5",
            "type": "t_uint256"
          },
          {
            "astId": 7635,
            "contract": "contracts/ecosystem/VestingControllerERC721.sol:VestingControllerERC721",
            "label": "exists",
            "offset": 0,
            "slot": "6",
            "type": "t_bool"
          }
        ],
        "numberOfBytes": "224"
      },
      "t_uint256": {
        "encoding": "inplace",
        "label": "uint256",
        "numberOfBytes": "32"
      },
      "t_uint8": {
        "encoding": "inplace",
        "label": "uint8",
        "numberOfBytes": "1"
      }
    }
  }
}